:02000002B0004C
:1040000000400B008C510B00000006000C00050264
:0840100004016810000000002B
:04401800884E0B00C3
:10401C0009480A49884208B505D0094A824202D0AB
:10402C00121A00F067FE0748074A0021121A00F026
:10403C006FFE014808BD00BF70E60320F8500B006E
:10404C00DCE60320DCE60320EDE7032070B5074E29
:10405C00074C00F097FBA41BA4080025AC4200D130
:10406C0070BD56F8043B98470135F7E7A8500B0094
:10407C00C8500B0000F013B808B500F019F8BDE8F3
:10408C00084000F037BB00F059B900F05FB9007878
:10409C00B0FA80F04009704701230370704708B5EF
:1040AC0000F078FCBDE808404FF4165100F066BCF7
:1040BC001FB500F06FFC03681B69984798B100F0BE
:1040CC0069FC0A220146684600F0C2FA07496846B4
:1040DC0000F02FFA20B100F05DFC054900F07BFAEE
:1040EC00684600F0A3F905B05DF804FB9C4E0B008C
:1040FC00AD4E0B0008B5024B1B689B68019308BDC5
:10410C006802030008B5024B1B68DB68019308BD0D
:10411C006802030008B5024B1B685B68019308BD7D
:10412C001802030008B5024B1B685B69019308BDBC
:10413C001802030008B5024B1B685B6C019308BDA9
:10414C004802030008B5024B1B685B69019308BD6C
:10415C006402030008B5024B1B68DB68019308BDC1
:10416C003C02030008B5024B1B681B69019308BD98
:10417C003C02030008B5024B1B685B69019308BD48
:10418C003C02030008B5024B1B689B69019308BDF8
:10419C003C02030008B5024B1B68DB69019308BDA8
:1041AC003C02030008B5024B1B689B6A019308BDD7
:1041BC003C02030008B5024B1B681B6C019308BD45
:1041CC003C02030008B5024B1B681B68019308BD39
:1041DC004C02030008B5024B1B685B68019308BDD9
:1041EC004C02030008B5024B1B681B69019308BD08
:1041FC004C02030008B5024B1B685B69019308BDB8
:10420C004C02030008B5024B1B689B69019308BD67
:10421C004C02030008B5024B1B68DB69019308BD17
:10422C004C02030008B5024B1B681B6A019308BDC6
:10423C004C02030008B5024B1B685B68019308BD78
:10424C002002030008B5034B1B68D3F88830019398
:10425C0008BD00002002030008B5034B1B68D3F80F
:10426C009430019308BD00002002030008B5024BF6
:10427C001B685B68019308BD4002030008B5024B44
:10428C001B689B68019308BD4002030008B5024BF4
:10429C001B68DB68019308BD4002030008B5024BA4
:1042AC001B681B69019308BD4002030008B5024B53
:1042BC001B685B69019308BD4002030008B5024B03
:1042CC001B689B69019308BD4002030008B5024BB3
:1042DC001B68DB69019308BD4002030008B5024B63
:1042EC001B681B6A019308BD4002030008B5024B12
:1042FC001B681B6B019308BD4002030008B5024B01
:10430C001B685B6B019308BD4002030008B5024BB0
:10431C001B681B6C019308BD4002030008B5024BDF
:10432C001B685B6C019308BD4002030008B5024B8F
:10433C001B68DB6B019308BD4402030008B5024BFC
:10434C001B681B68019308BD1C02030008B5024BD7
:10435C001B685B68019308BD1C02030008B5024B87
:10436C001B689B68019308BD1C02030008B5024B37
:10437C001B681B6C019308BD1C02030008B5024BA3
:10438C001B685B6C019308BD1C0203000022406893
:10439C001146FFF7A3BF002240681146FFF7AEBFDE
:1043AC0040680022FFF7A2BF4068002281F00101A3
:1043BC00FFF78CBF002340681A461946FFF77EBFF3
:1043CC00002340681A461946FFF770BF0022406868
:1043DC001146FFF763BF002240681146FFF74EBF3E
:1043EC00406800220221FFF751BF002340681A46A3
:1043FC00FFF73CBF024B03225A60024A1A60704717
:10440C00DCE60320D04E0B00054B02221A60054B54
:10441C00054A9A600020C3E90000FFF70BBF00BFFC
:10442C00F0E60320E4E603200000FFFF10B504468D
:10443C000068FFF78BFF204610BD10B504460068DE
:10444C0008B1FFF783FF0023C4E90133236010BDDB
:10445C0038B504460D4600680131FFF77FFF10B1F7
:10446C00C4E90005012038BD10B50368044623B12A
:10447C0043688B4201D3012010BD2046FFF7E8FFB3
:10448C000028F9D0A368002BF5D122681370F2E74D
:10449C0037B50D46114601920446FFF7E5FF019A28
:1044AC0028B92046FFF7C9FF204603B030BDA260F3
:1044BC002946206800F01EFC2268A3680021D15414
:1044CC00F2E7002313B5C0E900330446836003739D
:1044DC0041B10846019100F063FC01990246204667
:1044EC00FFF7D6FF204602B010BD70B505460E464C
:1044FC0009B9002070BD6AB1846814442146FFF7E5
:10450C00B3FF0028F5D02868AB683146184400F09A
:10451C003FFCAC600120EDE707B50023ADF804309B
:10452C0001228DF8041001A9FFF7DFFF03B05DF83D
:10453C0004FB08B582683AB921B10878B0FA80F06A
:10454C00400900E0012008BD006809B90078F5E7D2
:10455C0000F014FCF2E70000024800230360FFF7B0
:10456C00E9BD00BFF4E60320F8B506460D468F18EA
:10457C000024BD420CD0336815F8011B9B683046F3
:10458C009847031E01DB1C44F3E7002C08BF1C46B4
:10459C002046F8BD13B50446084659B1019100F008
:1045AC00FFFB23680199DB680246204602B0BDE898
:1045BC001040184702B010BD03689B68184738B507
:1045CC000D210546FFF7F8FF0A2104462846FFF7A0
:1045DC00F3FF204438BD38B50546FFF7DBFF044632
:1045EC002846FFF7ECFF204438BD30B58BB00023D4
:1045FC00012A8DF8243098BF0A2209AC0D46B1FB74
:10460C00F2F101FB125303F0FF03092B94BF30337B
:10461C003733DBB2AA4204F8013DEFD92146FFF74C
:10462C00B9FF0BB030BD10B50446FFF77BFDE06061
:10463C00236820465B699847002808DAFFF772FD6B
:10464C00E368C01AA3689842F2D34FF0FF3010BD54
:10465C0070B50D46094904461646FFF732FF284649
:10466C00FFF7E1FF002806DB864204D0C1B22046EA
:10467C00FFF752FFF3E7204670BD00BFAC4E0B00B6
:10468C00014B024A1A607047F8E60320044F0B00F6
:10469C00024B1A68024B1A60704700BF70E6032089
:1046AC00FCE60320014B00229A60704700E70320D0
:1046BC00014B1860704700BF74E6032008B50B4B24
:1046CC0043B100F067F903681B699847002801DDC6
:1046DC00AFF30080064B43B100F0E0FA03681B69AE
:1046EC009847002801DDAFF3008008BD00000000F2
:1046FC000000000008B5FFF7E1FFFFF713FD014BC9
:10470C00186008BD58E703200548064A064908B555
:10471C00121A00F0EFFA054B054A1A6008BD00BFEB
:10472C0000F4032004F40320F4500B0000F40320E5
:10473C001E1C279A07B5002300931A466FF07701C9
:10474C00FFF78AFD03B05DF804FB000007B5438852
:10475C000A2B08D0502B0BD1094B1B684BB103B063
:10476C005DF804EB1847FFF7E5FF03B05DF804FBB9
:10477C00002300931A466FF07701FFF76DFDF4E705
:10478C0014E7032010B512480021FFF7F7FD114B79
:10479C001A68114B9A42114B0CBF012200221A705D
:1047AC0001D0FFF7B1FFFFF7B5FC044600F0B8FAF3
:1047BC000B4B13B12046AFF3008000210848FFF7E4
:1047CC00B5FDBDE8104007480021FFF73BBD00BF19
:1047DC00BD460B0000F403201E1C279A10E7032093
:1047EC000000000059470B00704710B51821044613
:1047FC00FFF74BFC204610BDF0B5037D062B8DB0AA
:10480C000E4600F104074FF0000412D000F1080529
:10481C0015F8011D0A223046FFF7E7FEAF420444AB
:10482C0019D0002CF4D02E213046FFF7C5FE0444DD
:10483C00EEE72F236A4639460A208DF80040FFF731
:10484C0081FC684600F0ACFA33680246DB686946C6
:10485C0030469847044620460DB0F0BD10B5054BC8
:10486C000446112240F8043B002100F051FA204686
:10487C0010BD00BF2C4F0B000346074A10B543F880
:10488C00042B01F1100251F8044B43F8044B9142F4
:10489C00F9D10A781A7010BD2C4F0B0010B59DF889
:1048AC00084044EA032343EA024242EA016104233A
:1048BC004160037510BD000007B5064B0360CB7853
:1048CC0000938B784A780978FFF7E8FF03B05DF81E
:1048DC0004FB00BF2C4F0B004174704770477047AE
:1048EC0008B50021007CFFF78DFC40EAE07008BDA4
:1048FC0008B50121007CFFF785FC40EAE07008BD9B
:10490C0008B5007CFFF776FC20EAE07008BD08B51E
:10491C00007CFFF767FC20EAE07008BD13B5044685
:10492C00007C0191FFF766FC0028019901DC607C9A
:10493C0020B1207CFFF76EFC20EAE07002B010BDC5
:10494C00007CFFF76FBC10B514210446FFF79DFBEC
:10495C00204610BD10B54FF47A730446084600216A
:10496C00C4E90113044B23600123207463741146C2
:10497C00FFF728FC204610BD404F0B00007C0022A6
:10498C00FFF728BC10B514220446002100F0C0F932
:10499C00204610BD10B50F4C88B003A8FFF7F2FFEE
:1049AC002178BFF35B8F11F001010FD120460191EB
:1049BC00FFF76DFB019948B103AA0748FFF7CAFF3F
:1049CC002046FFF769FB054800F08EF9024808B055
:1049DC0010BD00BF18E703201CE70320E9480B00BB
:1049EC0070474174704708B5007CFFF7DBFB20EA89
:1049FC00E07008BD08B5007CFFF7B4FB20EAE0705E
:104A0C0008BD08B5007CFFF7BDFB40EAE07008BDAF
:104A1C0008B5007CFFF7AEFB40EAE07008BD007CF7
:104A2C00FFF7B8BB37B5457C04462DB1207C03B0ED
:104A3C00BDE83040FFF78EBB007C0191FFF7B2FB65
:104A4C0000280199F2DC284603B030BD10B51421C2
:104A5C000446FFF71AFB204610BD000010B54FF4BA
:104A6C007A730446084611460022C4E90123044B1C
:104A7C002360012320746374FFF79CFB204610BD58
:104A8C00704F0B00002240681146FFF707BC002254
:104A9C0040681146FFF722BC002240681146FFF720
:104AAC002DBC40680022FFF721BC4068002281F039
:104ABC000101FFF70BBC002340681A461946FFF7AB
:104ACC00FDBB002340681A461946FFF7EFBB0022D6
:104ADC0040681146FFF7D2BB406800220221FFF765
:104AEC00D5BB002340681A46FFF7C0BB024B04221B
:104AFC005A60024A1A60704730E70320A04F0B003F
:104B0C00002340681A46FFF7B1BB4068002202211F
:104B1C00FFF7BCBB002240681146FFF7AFBB002279
:104B2C0040681146FFF7BABB002340681A46194685
:104B3C00FFF7BCBB002340681A461946FFF7BEBB03
:104B4C0040680021FFF7E2BB40680021FFF7E6BB9D
:104B5C004068002281F00101FFF7B8BB40680022D9
:104B6C00FFF7C4BB002240681146FFF7C7BB002209
:104B7C0040681146FFF7B2BB2DE9F04395B01446DF
:104B8C000D460746FFF76AFE00211C220DA8009176
:104B9C0000F0BEF840230C9320466B460CAA002173
:104BAC00FFF7B0FA044600284BD102460121686891
:104BBC00FFF774FB0221804622466868FFF76EFB04
:104BCC00009E81462146002E3BD0002939D17368C6
:104BDC00022B03D00A2B11D0F669F4E7B8F1000FC1
:104BEC00FAD0716906A8043107ADFFF765FE0FCD49
:104BFC003C1D0FC42B6823704146EDE7B9F1000F43
:104C0C00EAD07469102201A800F082F806238DF80E
:104C1C00143001AD04F108031834186859682A4699
:104C2C0003C20833A3421546F7D101A906A807AD64
:104C3C00FFF722FE0FCD3C1D0FC42B682370494695
:104C4C00CAE70098FFF756FA384615B0BDE8F0836E
:104C5C00024B034A1A6000225A60704738E703205F
:104C6C00DC4F0B007047000038B5044614252A466B
:104C7C00002100F04DF82580402507492581284664
:104C8C00258200F02FF804496060284600F02AF8CD
:104C9C00E060204638BD00BF10500B0030B50E4D03
:104CAC002978BFF35B8F11F0010487B011D128462E
:104CBC00FFF7EDF968B101A8FFF7D6FF01AA21466D
:104CCC000648FFF7CBFE2846FFF7E6F9044800F04C
:104CDC000BF8024807B030BD40E7032044E703203F
:104CEC00714C0B00FFF7CFB9002301461A4618464A
:104CFC0000F05EB80A44914200F1FF3300D17047D6
:104D0C0010B511F8014B03F8014F9142F9D110BDC8
:104D1C0002440346934200D1704703F8011BF9E7A4
:104D2C0038B5104B1D68AB6B0446B3B91820FFF7B0
:104D3C0005FB0246A86320B90B4B0C484221FFF738
:104D4C0015FB0B490B4BC0E900130B4B83600B237A
:104D5C00838100210120C2E90401AB6B00221C619C
:104D6C005A6138BD74E6032011500B0028500B001B
:104D7C000E33CDAB34126DE6ECDE050010F8012BD2
:104D8C0011F8013B012A28BF9A42F7D0D01A70477C
:104D9C00034611F8012B03F8012B002AF9D17047B7
:104DAC00034613F8012B002AFBD1181A013870475F
:104DBC002DE9F843DFF8B8800646D8F800001F4606
:104DCC000D46914600F056F8254B1C6834B9254C1D
:104DDC001C60254B13B11B68C4F8883063681F2B0B
:104DEC0007DDD8F8000000F047F84FF0FF30BDE8C1
:104DFC00F8834EB3D4F8880088B91C4B23B9D8F883
:104E0C00000000F038F8F0E74FF48470FFF796FAE2
:104E1C000028F4D00023C0E94033C4F8880063684C
:104E2C0040F8239001229A4000EB8301D0F8003126
:104E3C001343C0F80031022EC1F8807002BFD0F8C5
:104E4C0004311343C0F804316368D8F800005A1CCD
:104E5C000233626044F8235000F00EF80020C6E7DD
:104E6C00E8E703205CE703200000000049430B0047
:104E7C00D8E6032070477047704700001D400B00B8
:104E8C0059400B0081400B0085400B0000000000D6
:104E9C0057616B652075702C204F70656E4D5621D7
:104EAC00005265717565737420646174612066725B
:104EBC006F6D204F70656E4D5600000000000000B5
:104ECC0000000000F7430B00ED430B00E3430B0025
:104EDC00D9430B00CD430B00C1430B004D4B0B00D2
:104EEC00554B0B00B5430B00AD430B00A3430B001C
:104EFC0099430B00854B0B006170700025592D25D3
:104F0C006D2D25645425483A254D3A2553257A00B4
:104F1C0061736374696D650000000000000000009F
:104F2C0005480B00F5470B00F7470B00000000008D
:104F3C0000000000EB480B0053490B0029490B0003
:104F4C0075450B001B490B00ED480B00FD480B0091
:104F5C004D490B000D490B00E5480B00000000000B
:104F6C0000000000ED490B00594A0B00314A0B00C0
:104F7C0075450B00014A0B001D4A0B000F4A0B0034
:104F8C002B4A0B00EF490B00F3490B00000000000B
:104F9C0000000000EF4A0B00E54A0B00DB4A0B0057
:104FAC00914A0B00CF4A0B00C34A0B004D4B0B0030
:104FBC00554B0B00B74A0B00AF4A0B00A54A0B0030
:104FCC009B4A0B00854B0B0000000000000000000A
:104FDC000D4B0B00174B0B00214B0B002B4B0B00FD
:104FEC00354B0B00414B0B004D4B0B00554B0B0045
:104FFC005D4B0B00694B0B00714B0B007B4B0B009B
:10500C00854B0B00005245454E54206D616C6C6F06
:10501C006320737563636565646564002F6D6E74DE
:10502C002F776F726B73706163652F776F726B7311
:10503C00706163652F4743432D31302D7069706566
:10504C006C696E652F6A656E6B696E732D47434391
:10505C002D31302D706970656C696E652D34385F3B
:10506C0032303230313132345F31363036313830E3
:10507C003634312F7372632F6E65776C69622F6EC5
:10508C0065776C69622F6C6962632F7374646C69E9
:10509C00622F72616E642E630000000001440B00ED
:1050AC0015440B0065450B008D460B009D460B000F
:1050BC00B1460B00F94A0B005D4C0B0000000000E0
:0450CC0000000000E0
:1050D000040000001400000003000000474E5500CB
:1050E000CCF61F3259980F21AD08D21EC15DCA45BA
:0450F000BA03BB75CF
:0450F40000000000B8
:1050F8001C4F0B0078E603200000000000000000B1
:105108000000000000000000000000000000000097
:105118000000000000000000000000000000000087
:105128000000000000000000000000000000000077
:105138000000000000000000000000000000000067
:105148000000000000000000000000000000000057
:0C5158000000000000000000ECE7032055
:10516400FFFFFFFF00000102030405060708090A08
:105174000B0C0D0E0F101112131415161718191A03
:085184001B1C1D1E1F2028004A
:04518C00785634120B
:04000003B000401CED
:00000001FF
