:02000002B0004C
:1040000000400B004C570B00000006000D0005029D
:0840100004016810000000002B
:0440180014540B0031
:10401C0009480A49884208B505D0094A824202D0AB
:10402C00121A01F037F90748074A0021121A01F059
:10403C003FF9014808BD00BF00E60320B8560B004D
:10404C006CE603206CE60320EDE7032070B5074E09
:10405C00074C00F05DFDA41BA4080025AC4200D168
:10406C0070BD56F8043B98470135F7E760560B00D6
:10407C0084560B0000F016B808B500F033F8BDE814
:10408C00084000F0FDBC00F097BA00F095BA00F0C3
:10409C009BBA0078B0FA80F0400970470123037096
:1040AC007047000008B50E48002319461A464068B0
:1040BC0000F042FA00F034FE4FF4165100F024FEEA
:1040CC0001F07AF84FF4165100F0F2FE01211320A2
:1040DC0001F02CF8BDE808400121132001F037B89D
:1040EC00E4E6032030B5002185B0132001F02FF851
:1040FC004FF47A7000F098FC0121132001F027F89E
:10410C000021132001F023F841F6583000F08CFC0C
:10411C0000F006FE044601F04FF80146684600F038
:10412C005DFC0099204600F01CFC684600F056FB34
:10413C00324C41F2883000F077FC0121132001F061
:10414C0006F8237D002B49D0022323722368DB68F9
:10415C00CBB19A88012A06D09B68F9E79B6893B18A
:10416C009A88012AFAD19A89132AF7D102229A73D2
:10417C00237D002B32D02368DB68DBB19A88042ABC
:10418C0036D09B68F9E71E49102001F079F80546F6
:10419C00002831D01022002101F08AF8194B2B6035
:1041AC000123AB802369AB601323AB810223AB7378
:1041BC002561DDE71249102001F062F80546D8B1FF
:1041CC001022002101F074F80E4B2B600423AB80FD
:1041DC002369AB604EF66023EB60256168460749A6
:1041EC0000F08AFA009808B100F0EEF905B030BD85
:1041FC004EF66022DA60F1E72575EFE778E60320EA
:10420C00C8550B001000030010B50021012000F070
:10421C0045F90A4B0A4A9A600024C3E9004402207B
:10422C0000F02CF9074B1A1D1A60C3E90244064A28
:10423C005A6001221C611A7510BD00BF6CE6032088
:10424C000000FFFF78E603201000030008B5024BC6
:10425C001B689B68019308BD6802030008B5024BFC
:10426C001B68DB68019308BD6802030008B5024BAC
:10427C001B689B68019308BD2C02030008B5024B18
:10428C001B68DB68019308BD2C02030008B5024BC8
:10429C001B681B69019308BD2C02030008B5024B77
:1042AC001B685B68019308BD1802030008B5024B3C
:1042BC001B685B69019308BD1802030008B5024B2B
:1042CC001B685B6C019308BD4802030008B5024BE8
:1042DC001B685B69019308BD6402030008B5024BBF
:1042EC001B68DB68019308BD3C02030008B5024B58
:1042FC001B681B69019308BD3C02030008B5024B07
:10430C001B685B69019308BD3C02030008B5024BB6
:10431C001B689B69019308BD3C02030008B5024B66
:10432C001B68DB69019308BD3C02030008B5024B16
:10433C001B681B6A019308BD3C02030008B5024BC5
:10434C001B689B6A019308BD3C02030008B5024B35
:10435C001B68DB6A019308BD3C02030008B5024BE5
:10436C001B681B6C019308BD3C02030008B5024B93
:10437C001B681B6A019308BD2802030008B5024B99
:10438C001B685B6A019308BD2802030008B5024B49
:10439C001B689B6A019308BD2802030008B5024BF9
:1043AC001B68DB6A019308BD2802030008B5024BA9
:1043BC001B681B6B019308BD2802030008B5024B58
:1043CC001B685B6B019308BD2802030008B5024B08
:1043DC001B681B6C019308BD2802030008B5024B37
:1043EC001B68DB69019308BD3002030008B5024B62
:1043FC001B681B6A019308BD3002030008B5024B11
:10440C001B681B68019308BD4C02030008B5024BE6
:10441C001B685B68019308BD4C02030008B5024B96
:10442C001B681B69019308BD4C02030008B5024BC5
:10443C001B685B69019308BD4C02030008B5024B75
:10444C001B689B69019308BD4C02030008B5024B25
:10445C001B68DB69019308BD4C02030008B5024BD5
:10446C001B681B6A019308BD4C02030008B5024B84
:10447C001B681B6D019308BD6002030008B5024B5D
:10448C001B685B68019308BD2002030008B5024B52
:10449C001B685B69019308BD2002030008B5024B41
:1044AC001B68DB6A019308BD2002030008B5034BAF
:1044BC001B68D3F88830019308BD0000200203006C
:1044CC0008B5034B1B68D3F89430019308BD00006A
:1044DC002002030008B5034B1B68D3F8AC300193E2
:1044EC0008BD00002002030008B5024B1B685B6886
:1044FC00019308BD4002030008B5024B1B689B6882
:10450C00019308BD4002030008B5024B1B68DB6831
:10451C00019308BD4002030008B5024B1B681B69E0
:10452C00019308BD4002030008B5024B1B685B6990
:10453C00019308BD4002030008B5024B1B689B6940
:10454C00019308BD4002030008B5024B1B68DB69F0
:10455C00019308BD4002030008B5024B1B681B6A9F
:10456C00019308BD4002030008B5024B1B681B6B8E
:10457C00019308BD4002030008B5024B1B685B6B3E
:10458C00019308BD4002030008B5024B1B681B6C6D
:10459C00019308BD4002030008B5024B1B685B6C1D
:1045AC00019308BD4002030008B5024B1B68DB6B8E
:1045BC00019308BD4402030008B5024B1B681B683D
:1045CC00019308BD1C02030008B5024B1B685B6815
:1045DC00019308BD1C02030008B5024B1B689B68C5
:1045EC00019308BD1C02030008B5024B1B681B6C31
:1045FC00019308BD1C02030008B5024B1B685B6CE1
:10460C00019308BD1C020300002240681146FFF70D
:10461C00A3BF002240681146FFF7AEBF40680022DE
:10462C00FFF7A2BF4068002281F00101FFF78CBFA9
:10463C00002340681A461946FFF77EBF00234068E6
:10464C001A461946FFF770BF002240681146FFF763
:10465C0063BF002240681146FFF74EBF406800223E
:10466C000221FFF751BF002340681A46FFF73CBFF9
:10467C00024B03225A60024A1A60704790E60320EC
:10468C0030540B0010B5044608462170FFF7A6FE07
:10469C0000236360204610BD10B50446006818B1B5
:1046AC00FFF792FF0023236010BD38B50C4605467A
:1046BC00FFF7F2FF54B12088FFF77EFF286028B186
:1046CC0022882146BDE8384000F0E4BD38BD38B53D
:1046DC00B1F904308380D1F80630C0F806304B892C
:1046EC0043810C460546FFF7D7FF236813B12B60B7
:1046FC000023236038BD0000F0B52B4D0B7D044624
:10470C008BB00846AF1D002B36D00B681B79002BE5
:10471C0032D0264B0493002202A90430CDE90222A8
:10472C00FFF7D8FEDDF80E30C5F8063000B2BDF844
:10473C001230ADF80C00A8800299BB802846FFF718
:10474C00B4FF02A8FFF7A8FF00232360A380A37186
:10475C0023814FF6FF736381B5F90430A380D5F83C
:10476C000630C4F80630BB88296863812046FFF701
:10477C009CFF20460BB0F0BD00262023CDE902366D
:10478C000B4B009302AA33460A493220FFF76EFE08
:10479C00064B054802964FF6F26202A9CDE90323B7
:1047AC00FFF795FFCDE700BF98E603200000FFFF61
:1047BC006B540B0064540B00054B02221A60054B22
:1047CC00054A9A600020C3E90000FFF757BE00BFFE
:1047DC00A4E6032098E603200000FFFF10B5044672
:1047EC000068FFF7F1FE204610BD10B504460068C6
:1047FC0008B1FFF7E9FE0023C4E90133236010BDC3
:10480C0038B504460D4600680131FFF7E5FE10B1DE
:10481C00C4E90005012038BD10B50368044623B176
:10482C0043688B4201D3012010BD2046FFF7E8FFFF
:10483C000028F9D0A368002BF5D122681370F2E799
:10484C0037B50D46114601920446FFF7E5FF019A74
:10485C0028B92046FFF7C9FF204603B030BDA2603F
:10486C002946206800F016FD2268A3680021D15467
:10487C00F2E7002313B5C0E90033044683600373E9
:10488C0041B10846019100F051FD019902462046C4
:10489C00FFF7D6FF204602B010BD70B505460E4698
:1048AC0009B9002070BD6AB1846814442146FFF731
:1048BC00B3FF0028F5D02868AB683146184400F0E7
:1048CC002DFDAC600120EDE707B50023ADF80430F9
:1048DC0001228DF8041001A9FFF7DFFF03B05DF88A
:1048EC0004FB0000024800230360FFF7E7BC00BF95
:1048FC00A8E60320F8B506460D468F180024BD42E5
:10490C000CD0336815F8011B9B6830469847031E82
:10491C0001DB1C44F3E7002C08BF1C462046F8BD05
:10492C0013B50446084659B1019100F0FFFC236809
:10493C000199DB680246204602B0BDE810401847DA
:10494C0002B010BD03689B68184738B50D210546A9
:10495C00FFF7F8FF0A2104462846FFF7F3FF20442F
:10496C0038BD38B50546FFF7DBFF04462846FFF790
:10497C00ECFF204438BD30B58BB00023012A8DF8F4
:10498C00243098BF0A2209AC0D46B1FBF2F101FBB1
:10499C00125303F0FF03092B94BF30333733DBB2D0
:1049AC00AA4204F8013DEFD92146FFF7B9FF0BB03D
:1049BC0030BD10B50446FFF779FCE0602368204653
:1049CC005B699847002808DAFFF770FCE368C01AA7
:1049DC00A3689842F2D34FF0FF3010BD38B50D46A6
:1049EC0007490446FFF745FF2846FFF7E2FF00287A
:1049FC0004DBC1B22046FFF767FFF5E7204638BD60
:104A0C0091540B00014B024A1A607047ACE603202C
:104A1C0092540B00024B1A68024B1A60704700BF8D
:104A2C0000E60320B0E603200021FFF72FBD0000B5
:104A3C00014B00229A607047B4E60320014B1860CA
:104A4C00704700BF04E6032008B50B4B43B100F0E0
:104A5C0067F903681B699847002801DDAFF30080F4
:104A6C00064B43B100F0A8FB03681B69984700286C
:104A7C0001DDAFF3008008BD000000000000000065
:104A8C0008B5FFF7E1FFFFF711FC014B186008BDFB
:104A9C0040E703200548064A064908B5121A00F0FB
:104AAC00F9FB054B054A1A6008BD00BF00F4032052
:104ABC0004F40320B4560B0000F403201E1C279AA8
:104ACC0007B5002300931A466FF07701FFF7F8FC47
:104ADC0003B05DF804FB000007B543880A2B08D02F
:104AEC00502B0BD1094B1B684BB103B05DF804EB99
:104AFC001847FFF7E5FF03B05DF804FB00230093B4
:104B0C001A466FF07701FFF7DBFCF4E7C8E60320E9
:104B1C0010B512480021FFF76FFD114B1A68114BAD
:104B2C009A42114B0CBF012200221A7001D0FFF7E0
:104B3C00B1FFFFF7B3FB044600F0C2FB0B4B13B104
:104B4C002046AFF3008000210848FFF72DFDBDE89B
:104B5C00104007480021FFF7A9BC00BF494A0B00D1
:104B6C0000F403201E1C279AC4E60320000000005A
:104B7C00E54A0B00704710B518210446FFF787FA79
:104B8C00204610BDF0B5037D062B8DB00E4600F10E
:104B9C0004074FF0000412D000F1080515F8011DB0
:104BAC000A223046FFF7E7FEAF42044419D0002C2E
:104BBC00F4D02E213046FFF7C5FE0444EEE72F2338
:104BCC006A4639460A208DF80040FFF77FFB68469D
:104BDC0000F0ACFB33680246DB6869463046984708
:104BEC00044620460DB0F0BD10B5054B044611220D
:104BFC0040F8043B002100F05BFB204610BD00BFD9
:104C0C00BC540B000346074A10B543F8042B01F1C2
:104C1C00100251F8044B43F8044B9142F9D10A7835
:104C2C001A7010BDBC540B0010B59DF8084044EA36
:104C3C00032343EA024242EA016104234160037503
:104C4C0010BD000007B5064B0360CB7800938B7842
:104C5C004A780978FFF7E8FF03B05DF804FB00BF62
:104C6C00BC540B00417470477047704708B5002165
:104C7C00007CFFF7E3FB40EAE07008BD08B50121BA
:104C8C00007CFFF7DBFB40EAE07008BD08B5007C58
:104C9C00FFF7CCFB20EAE07008BD08B5007CFFF7FD
:104CAC00BDFB20EAE07008BD13B50446007C019101
:104CBC00FFF7BCFB0028019901DC607C20B1207C53
:104CCC00FFF7C4FB20EAE07002B010BD007CFFF7D8
:104CDC00C5BB10B514210446FFF7D9F9204610BD09
:104CEC0010B54FF47A73044608460021C4E9011349
:104CFC00044B23600123207463741146FFF77EFB81
:104D0C00204610BDD0540B00007C0022FFF77EBB68
:104D1C0010B514220446002100F0CAFA204610BD3A
:104D2C0010B50F4C88B003A8FFF7F2FF2178BFF342
:104D3C005B8F11F001010FD120460191FFF7A9F90A
:104D4C00019948B103AA0748FFF7CAFF2046FFF7AD
:104D5C00A5F9054800F098FA024808B010BD00BF4C
:104D6C00CCE60320D0E60320754C0B0000224068F3
:104D7C001146FFF7D1BB002240681146FFF7ECBB90
:104D8C00002240681146FFF7F7BB40680022FFF78E
:104D9C00EBBB4068002281F00101FFF7D5BB00237B
:104DAC0040681A461946FFF7C7BB002340681A46ED
:104DBC001946FFF7B9BB002240681146FFF79CBBB0
:104DCC00406800220221FFF79FBB002340681A466F
:104DDC00FFF78ABB084B10B5282422461846002141
:104DEC0000F066FA054B04804FF0FF32426004225B
:104DFC005A60034A1A6010BDECE60320E4E6032077
:104E0C0000550B0070474174704708B5007CFFF7E4
:104E1C0095FA20EAE07008BD08B5007CFFF766FA49
:104E2C0020EAE07008BD08B5007CFFF76FFA40EA95
:104E3C00E07008BD08B5007CFFF760FA40EAE0704E
:104E4C0008BD007CFFF76ABA37B5457C04462DB126
:104E5C00207C03B0BDE83040FFF740BA007C0191E4
:104E6C00FFF76CFA00280199F2DC284603B030BD3C
:104E7C0010B514210446FFF70AF9204610BD0000B6
:104E8C0010B54FF47A730446084611460022C4E963
:104E9C000123044B2360012320746374FFF75EFA33
:104EAC00204610BD3C550B00007C0023FFF74EBA8A
:104EBC000022FFF7F9BF7047F8B5064615460C46B9
:104ECC008F18BC4206D0336814F8011B9B6830461F
:104EDC009847F6E72846F8BD007C0022FFF746BA53
:104EEC00007C0021FFF74ABA007C0021FFF74EBA84
:104EFC00007C0021FFF752BA007C0021FFF756BA64
:104F0C0010B514210446FFF7C2F8204610BD00006E
:104F1C0038B5044615464FF47A730022C4E90123D0
:104F2C00094B2174084623602946FFF74FFABF301E
:104F3C0008D16B69DB0705D56868FFF745FBE868A6
:104F4C00FFF742FB204638BD6C550B000023406830
:104F5C001A46FFF7C9BA406800220221FFF7D4BAFB
:104F6C00002240681146FFF7C7BA0022406811467C
:104F7C00FFF7D2BA002340681A461946FFF7D4BA95
:104F8C00002340681A461946FFF7D6BA406800213C
:104F9C00FFF7FABA40680021FFF7FEBA406800221A
:104FAC0081F00101FFF7D0BA40680022FFF7DCBAAC
:104FBC00002240681146FFF7DFBA00224068114614
:104FCC00FFF7CABA2DE9F04395B014460D460746D3
:104FDC00FFF70AFE00211C220DA8009100F068F9D1
:104FEC0040230C9320466B460CAA0021FFF736F9A0
:104FFC00044600284BD1024601216868FFF78CFA61
:10500C000221804622466868FFF786FA009E814698
:10501C002146002E3BD0002939D17368022B03D0D6
:10502C000A2B11D0F669F4E7B8F1000FFAD07169C8
:10503C0006A8043107ADFFF705FE0FCD3C1D0FC4CC
:10504C002B6823704146EDE7B9F1000FEAD0746983
:10505C00102201A800F02CF906238DF8143001ADB4
:10506C0004F108031834186859682A4603C2083337
:10507C00A3421546F7D101A906A807ADFFF7C2FD5B
:10508C000FCD3C1D0FC42B6823704946CAE700980E
:10509C00FFF7DCF8384615B0BDE8F083024B034A45
:1050AC001A6000225A60704714E7032094550B00D5
:1050BC00232813B502D9002002B010BDA0F10B03B8
:1050CC00022B1AD8174C2178BFF35B8F11F001011A
:1050DC000BD120460191FEF7DCFF019928B1124853
:1050EC00FFF7D0FA2046FEF7D9FF0F4B1878FFF7E1
:1050FC007DF90028DFD10120DEE7012809D800F076
:10510C009BF80021007CFFF759F980F00100C0B238
:10511C00D2E709380128EED800F04EF8007CFFF7F2
:10512C0005F9F2E71CE7032020E70320232838B514
:10513C0004460D460AD8FF2908D0FFF7B9FF28B15D
:10514C0029462046BDE83840FFF790B838BD38B541
:10515C0004460D46FFF792F8FF2810D0062804D815
:10516C004D2323FA00F0C30709D42046FFF7A0FF14
:10517C0028B129462046BDE83840FFF787B838BD2E
:10518C007047000038B5044614252A46002100F06B
:10519C008FF825804025074925812846258200F077
:1051AC0071F804496060284600F06CF8E060204615
:1051BC0038BD00BFC8550B0030B50E4D2978BFF374
:1051CC005B8F11F0010487B011D12846FEF761FF07
:1051DC0068B101A8FFF7D6FF01AA21460648FFF7E0
:1051EC004FFE2846FEF75AFF044800F04DF80248DF
:1051FC0007B030BD28E703202CE703208D510B00AE
:10520C007047000038B50A4B036001230446436124
:10521C000849202000F036F8202560600549A5607B
:10522C00284600F02FF8C4E90305204638BD00BF1E
:10523C0018000100C8550B0030B50E4D2978BFF38E
:10524C005B8F11F0010487B011D12846FEF721FFC6
:10525C0068B16846FFF7D6FF6A4621460648FFF755
:10526C0057FE2846FEF71AFF044800F00DF80248D6
:10527C0007B030BD44E7032048E703200D520B0074
:10528C00FEF701BFFEF701BF002301461A46184680
:10529C0000F054B80A44914200F1FF3300D170473A
:1052AC0010B511F8014B03F8014F9142F9D110BD23
:1052BC0002440346934200D1704703F8011BF9E7FF
:1052CC0038B5104B1D68AB6B0446B3B91820FFF70B
:1052DC0073F90246A86320B90B4B0C484221FFF727
:1052EC0083F90B490B4BC0E900130B4B83600B2369
:1052FC00838100210120C2E90401AB6B00221C61F7
:10530C005A6138BD04E60320C9550B00E0550B006B
:10531C000E33CDAB34126DE6ECDE0500034611F80E
:10532C00012B03F8012B002AF9D17047034613F81F
:10533C00012B002AFBD1181A013870472DE9F843CC
:10534C00DFF8B8800646D8F800001F460D46914697
:10535C0000F056F8254B1C6834B9254C1C60254BC5
:10536C0013B11B68C4F8883063681F2B07DDD8F8AD
:10537C00000000F047F84FF0FF30BDE8F8834EB363
:10538C00D4F8880088B91C4B23B9D8F8000000F079
:10539C0038F8F0E74FF48470FFF70EF90028F4D0DA
:1053AC000023C0E94033C4F88800636840F82390B8
:1053BC0001229A4000EB8301D0F800311343C0F86E
:1053CC000031022EC1F8807002BFD0F804311343B3
:1053DC00C0F804316368D8F800005A1C02336260CC
:1053EC0044F8235000F00EF80020C6E7E8E703204D
:1053FC005CE7032000000000C5450B0068E60320B5
:10540C0070477047704700001D400B0059400B005F
:10541C0081400B0085400B000000000000000000E4
:10542C000000000073460B0069460B005F460B0042
:10543C0055460B0049460B003D460B00994F0B009F
:10544C00A14F0B0031460B0029460B001F460B00E9
:10545C0015460B00D14F0B00776972696E670053CC
:10546C00797374656D20736C65657020636F6E66FF
:10547C00696775726174696F6E20697320696E76E5
:10548C00616C69642E006170700025592D256D2D9D
:10549C0025645425483A254D3A2553257A006173E5
:1054AC006374696D650000000000000000000000DE
:1054BC00914B0B00814B0B00834B0B000000000049
:1054CC0000000000774C0B00DF4C0B00B54C0B00C0
:1054DC0001490B00A74C0B00794C0B00894C0B00BD
:1054EC00D94C0B00994C0B00714C0B0000000000C8
:1054FC0000000000D74D0B00CD4D0B00C34D0B0031
:10550C00794D0B00B74D0B00AB4D0B00994F0B00B9
:10551C00A14F0B009F4D0B00974D0B008D4D0B00B9
:10552C00834D0B00D14F0B00000000000000000069
:10553C00114E0B007D4E0B00554E0B0001490B001C
:10554C00254E0B00414E0B00334E0B004F4E0B0003
:10555C00134E0B00174E0B00000000000000000063
:10556C00C34E0B000D4F0B00E54E0B00C54E0B0050
:10557C00ED4E0B00F54E0B00FD4E0B00054F0B00D6
:10558C000000000000000000594F0B00634F0B009F
:10559C006D4F0B00774F0B00814F0B008D4F0B00A5
:1055AC00994F0B00A14F0B00A94F0B00B54F0B00EF
:1055BC00BD4F0B00C74F0B00D14F0B0000524545A0
:1055CC004E54206D616C6C6F6320737563636565FD
:1055DC00646564002F6D6E742F776F726B737061DE
:1055EC0063652F776F726B73706163652F474343ED
:1055FC002D31302D706970656C696E652F6A656E22
:10560C006B696E732D4743432D31302D7069706576
:10561C006C696E652D34385F323032303131323452
:10562C005F313630363138303634312F7372632F68
:10563C006E65776C69622F6E65776C69622F6C6929
:10564C0062632F7374646C69622F72616E642E6373
:10565C000000000015420B007D460B00C5470B00F7
:10566C00F1480B00114A0B00214A0B003D4A0B007C
:10567C00E14D0B00A9500B000000000000000000E1
:04568C00000000001A
:10569000040000001400000003000000474E550005
:1056A0007F0AE26DD7FA5902AD35D549F55D9215FD
:0456B0009126238B91
:0456B40000000000F2
:1056B800AA540B0008E603200000000000000000C8
:1056C80000000000000000000000000000000000D2
:1056D80000000000000000000000000000000000C2
:1056E80000000000000000000000000000000000B2
:1056F80000000000000000000000000000000000A2
:105708000000000000000000000000000000000091
:0C5718000000000000000000ECE703208F
:10572400FFFFFFFF00000102030405060708090A42
:105734000B0C0D0E0F101112131415161718191A3D
:085744001B1C1D1E1F20280084
:04574C007856341245
:04000003B000401CED
:00000001FF
