:02000002B0004C
:1040000000400B00AC4F0B00000006000D00050245
:0840100004016810000000002B
:04401800CC4C0B0081
:10401C0009480A49884208B505D0094A824202D0AB
:10402C00121A00F09BFD0748074A0021121A00F0F3
:10403C00A3FD014808BD00BF3CE60320184F0B0050
:10404C00A8E60320A8E60320EDE7032070B5074E91
:10405C00074C00F0C1FAA41BA4080025AC4200D107
:10406C0070BD56F8043B98470135F7E7C44E0B007A
:10407C00E84E0B0000F04ABA08B500F011F8BDE8A4
:10408C00084000F061BA00F06BB900F071B900782B
:10409C00B0FA80F0400970470123037070470000AC
:1040AC0008B500F02FFD044900F0E8F9BDE8084020
:1040BC0041F2883000F01ABAE04C0B0008B5012030
:1040CC00002100F0C9F8064B0022C3E90022A2F53A
:1040DC0080329A60BDE80840022000F0ADB800BF05
:1040EC00A8E6032013B50446084659B1019100F027
:1040FC0079FD23680199DB680246204602B0BDE8D1
:10410C001040184702B010BD08B5024B1B689B68E5
:10411C00019308BD6802030008B5024B1B68DB68FD
:10412C00019308BD6802030008B5024B1B685B686D
:10413C00019308BD1802030008B5024B1B685B69AC
:10414C00019308BD1802030008B5024B1B685B6C99
:10415C00019308BD4802030008B5024B1B685B695C
:10416C00019308BD6402030008B5024B1B68DB68B1
:10417C00019308BD3C02030008B5024B1B681B6988
:10418C00019308BD3C02030008B5024B1B685B6938
:10419C00019308BD3C02030008B5024B1B689B69E8
:1041AC00019308BD3C02030008B5024B1B68DB6998
:1041BC00019308BD3C02030008B5024B1B689B6AC7
:1041CC00019308BD3C02030008B5024B1B681B6C35
:1041DC00019308BD3C02030008B5024B1B681B6829
:1041EC00019308BD4C02030008B5024B1B681B6908
:1041FC00019308BD4C02030008B5024B1B685B69B8
:10420C00019308BD4C02030008B5024B1B689B6967
:10421C00019308BD4C02030008B5024B1B68DB6917
:10422C00019308BD4C02030008B5024B1B681B6AC6
:10423C00019308BD4C02030008B5024B1B685B6878
:10424C00019308BD2002030008B5024B1B685B6993
:10425C00019308BD2002030008B5024B1B68DB6A02
:10426C00019308BD2002030008B5034B1B68D3F86B
:10427C008830019308BD00002002030008B5034BF1
:10428C001B68D3F89430019308BD00002002030092
:10429C0008B5024B1B685B68019308BD4002030024
:1042AC0008B5024B1B689B68019308BD40020300D4
:1042BC0008B5024B1B68DB68019308BD4002030084
:1042CC0008B5024B1B681B69019308BD4002030033
:1042DC0008B5024B1B685B69019308BD40020300E3
:1042EC0008B5024B1B689B69019308BD4002030093
:1042FC0008B5024B1B68DB69019308BD4002030043
:10430C0008B5024B1B681B6A019308BD40020300F1
:10431C0008B5024B1B681B6B019308BD40020300E0
:10432C0008B5024B1B685B6B019308BD4002030090
:10433C0008B5024B1B681B6C019308BD40020300BF
:10434C0008B5024B1B685B6C019308BD400203006F
:10435C0008B5024B1B68DB6B019308BD44020300DC
:10436C0008B5024B1B681B68019308BD1C020300B7
:10437C0008B5024B1B685B68019308BD1C02030067
:10438C0008B5024B1B681B6C019308BD1C02030093
:10439C0008B5024B1B685B6C019308BD1C02030043
:1043AC00002240681146FFF7ABBF0022406811465F
:1043BC00FFF7B6BF40680022FFF7AABF4068002293
:1043CC0081F00101FFF794BF002340681A4619469B
:1043DC00FFF786BF002340681A461946FFF778BFDF
:1043EC00002240681146FFF76BBF0022406811465F
:1043FC00FFF756BF406800220221FFF759BF002388
:10440C0040681A46FFF744BF024B03225A60024A27
:10441C001A607047B4E60320EC4C0B00054B0222EB
:10442C001A60054B054A9A600020C3E90000FFF7AB
:10443C0003BF00BFC8E60320BCE603200000FFFF5B
:10444C00024800230360FFF77FBE00BFCCE60320C9
:10445C00F8B506460D468F180024BD420CD03368C3
:10446C0015F8011B9B6830469847031E01DB1C4462
:10447C00F3E7002C08BF1C462046F8BD08B5FFF733
:10448C0031FE08BD03689B68184730B58BB000231C
:10449C00012A8DF8243098BF0A2209AC0D46B1FBD5
:1044AC00F2F101FB125303F0FF03092B94BF3033DD
:1044BC003733DBB2AA4204F8013DEFD92146FFF7AE
:1044CC0011FE0BB030BD0000014B024A1A60704760
:1044DC00D0E60320204D0B00024B1A68024B1A60E9
:1044EC00704700BF3CE60320D4E603200021FFF711
:1044FC00ABBE0000014B00229A607047D8E6032047
:10450C00014B1860704700BF40E603207047000065
:10451C0008B50B4B43B100F063F903681B6998476E
:10452C00002801DDAFF30080064B43B100F0EAFA3E
:10453C0003681B699847002801DDAFF3008008BDB4
:10454C00000000000000000008B5FFF7E1FFFFF7D6
:10455C00F3FD014B186008BD58E703200548064AD7
:10456C00064908B5121A00F0F9FA054B054A1A600B
:10457C0008BD00BF00F4032004F40320144F0B000B
:10458C0000F403201E1C279A07B5002300931A463B
:10459C006FF07701FFF772FE03B05DF804FB0000CB
:1045AC0007B543880A2B08D0502B0BD1094B1B683D
:1045BC004BB103B05DF804EB1847FFF7E5FF03B010
:1045CC005DF804FB002300931A466FF07701FFF7A8
:1045DC0055FEF4E7ECE6032010B512480021FFF776
:1045EC00D7FE114B1A68114B9A42114B0CBF01228A
:1045FC0000221A7001D0FFF7B1FFFFF795FD0446BA
:10460C0000F0C2FA0B4B13B12046AFF3008000212F
:10461C000848FFF79DFEBDE8104007480021FFF752
:10462C0023BE00BF0D450B0000F403201E1C279A6F
:10463C00E8E6032000000000AD450B00704710B504
:10464C0018210446FFF721FD204610BDF0B5037D6F
:10465C00062B8DB00E4600F104074FF0000412D06B
:10466C0000F1080515F8011D0A223046FFF70DFF71
:10467C00AF42044419D0002CF4D02E213046FFF761
:10468C0001FF0444EEE72F236A4639460A208DF8D1
:10469C000040FFF761FD684600F0A4FA336802465B
:1046AC00DB68694630469847044620460DB0F0BD9D
:1046BC0010B5054B0446112240F8043B002100F0D4
:1046CC005BFA204610BD00BF484D0B000346074A5D
:1046DC0010B543F8042B01F1100251F8044B43F8C8
:1046EC00044B9142F9D10A781A7010BD484D0B0059
:1046FC0010B59DF8084044EA032343EA024242EA1B
:10470C00016104234160037510BD000007B5064B21
:10471C000360CB7800938B784A780978FFF7E8FF31
:10472C0003B05DF804FB00BF484D0B0041747047AB
:10473C007047704708B50021007CFFF765FD40EA23
:10474C00E07008BD08B50121007CFFF75DFD40EA73
:10475C00E07008BD08B5007CFFF74EFD20EAE07064
:10476C0008BD08B5007CFFF73FFD20EAE07008BDEE
:10477C0013B50446007C0191FFF73EFD002801991A
:10478C0001DC607C20B1207CFFF746FD20EAE07064
:10479C0002B010BD007CFFF747BD10B514210446D4
:1047AC00FFF773FC204610BD10B54FF47A73044626
:1047BC0008460021C4E90113044B23600123207433
:1047CC0063741146FFF708FD204610BD5C4D0B00CD
:1047DC0010B514220446002100F0CEF9204610BD7D
:1047EC0010B50F4C88B003A8FFF7F2FF2178BFF388
:1047FC005B8F11F001010FD120460191FFF747FCAF
:10480C00019948B103AA0748FFF7CEFF2046FFF7EE
:10481C0043FC054800F09CF9024808B010BD00BFED
:10482C00F0E60320F4E603203D470B00002240682D
:10483C001146FFF745BD002240681146FFF760BDE9
:10484C00002240681146FFF76BBD40680022FFF75D
:10485C005FBD4068002281F00101FFF749BD0023D4
:10486C0040681A461946FFF73BBD002340681A46BC
:10487C001946FFF72DBD002240681146FFF710BD09
:10488C00406800220221FFF713BD002340681A463E
:10489C00FFF7FEBC084B10B5282422461846002111
:1048AC0000F06AF9054B04804FF0FF32426004229D
:1048BC005A60034A1A6010BD10E7032008E7032072
:1048CC008C4D0B0070474174704708B5007CFFF7A6
:1048DC0073FC20EAE07008BD08B5007CFFF74CFCC7
:1048EC0020EAE07008BD08B5007CFFF755FC40EAF3
:1048FC00E07008BD08B5007CFFF746FC40EAE070AC
:10490C0008BD007CFFF750BC37B5457C04462DB183
:10491C00207C03B0BDE83040FFF726BC007C019141
:10492C00FFF74AFC00280199F2DC284603B030BDA1
:10493C0010B514210446FFF7A8FB204610BD00005B
:10494C0010B54FF47A730446084611460022C4E9A8
:10495C000123044B2360012320746374FFF734FCA0
:10496C00204610BDC84D0B00002340681A46FFF7C7
:10497C008FBC406800220221FFF79ABC00224068DD
:10498C001146FFF78DBC002240681146FFF798BC1A
:10499C00002340681A461946FFF79ABC002340686A
:1049AC001A461946FFF79CBC40680021FFF7C0BCB3
:1049BC0040680021FFF7C4BC4068002281F001016F
:1049CC00FFF796BC40680022FFF7A2BC00224068AB
:1049DC001146FFF7A5BC002240681146FFF790BCBA
:1049EC002DE9F04395B014460D460746FFF760FEDF
:1049FC0000211C220DA8009100F0BEF840230C935E
:104A0C0020466B460CAA0021FFF786FB04460028C3
:104A1C004BD1024601216868FFF752FC0221804607
:104A2C0022466868FFF74CFC009E81462146002E0A
:104A3C003BD0002939D17368022B03D00A2B11D03B
:104A4C00F669F4E7B8F1000FFAD0716906A80431E1
:104A5C0007ADFFF75BFE0FCD3C1D0FC42B68237019
:104A6C004146EDE7B9F1000FEAD07469102201A8B4
:104A7C0000F082F806238DF8143001AD04F1080320
:104A8C001834186859682A4603C20833A3421546DD
:104A9C00F7D101A906A807ADFFF718FE0FCD3C1DF5
:104AAC000FC42B6823704946CAE70098FFF72CFB0C
:104ABC00384615B0BDE8F083024B034A1A60002259
:104ACC005A60704738E70320F84D0B007047000020
:104ADC0038B5044614252A46002100F04DF82580EF
:104AEC004025074925812846258200F02FF80449E6
:104AFC006060284600F02AF8E060204638BD00BF10
:104B0C002C4E0B0030B50E4D2978BFF35B8F11F096
:104B1C00010487B011D12846FFF7B9FA68B101A892
:104B2C00FFF7D6FF01AA21460648FFF709FF2846E2
:104B3C00FFF7B2FA044800F00BF8024807B030BD9A
:104B4C0040E7032044E70320D94A0B00FFF79BBA48
:104B5C00002301461A46184600F04CB80A4491420C
:104B6C0000F1FF3300D1704710B511F8014B03F879
:104B7C00014F9142F9D110BD02440346934200D13A
:104B8C00704703F8011BF9E738B5104B1D68AB6B88
:104B9C000446B3B91820FFF7E3FB0246A86320B91B
:104BAC000B4B0C484221FFF7EBFB0B490B4BC0E9BD
:104BBC0000130B4B83600B23838100210120C2E97E
:104BCC000401AB6B00221C615A6138BD40E6032026
:104BDC002D4E0B00444E0B000E33CDAB34126DE654
:104BEC00ECDE0500034613F8012B002AFBD1181A42
:104BFC00013870472DE9F843DFF8B8800646D8F83D
:104C0C0000001F460D46914600F056F8254B1C68D7
:104C1C0034B9254C1C60254B13B11B68C4F8883083
:104C2C0063681F2B07DDD8F8000000F047F84FF041
:104C3C00FF30BDE8F8834EB3D4F8880088B91C4B1C
:104C4C0023B9D8F8000000F038F8F0E74FF484707E
:104C5C00FFF786FB0028F4D00023C0E94033C4F8EA
:104C6C008800636840F8239001229A4000EB83018E
:104C7C00D0F800311343C0F80031022EC1F8807017
:104C8C0002BFD0F804311343C0F804316368D8F87C
:104C9C0000005A1C0233626044F8235000F00EF8F6
:104CAC000020C6E7E8E703205CE7032000000000D3
:104CBC006D430B00A4E6032070477047704700005B
:104CCC001D400B0059400B0081400B0085400B0030
:104CDC000000000052000000000000000000000076
:104CEC000B440B0001440B00F7430B00ED430B008E
:104CFC00E1430B00D5430B00B5490B00BD490B003C
:104D0C00C9430B00C1430B00B7430B00AD430B0071
:104D1C00ED490B006170700025592D256D2D256412
:104D2C005425483A254D3A2553257A00617363740E
:104D3C00696D6500000000000000000059460B0082
:104D4C0049460B004B460B00000000000000000021
:104D5C003F470B00A7470B007D470B005D440B0042
:104D6C006F470B0041470B0051470B00A1470B004D
:104D7C0061470B0039470B000000000000000000E9
:104D8C0097480B008D480B0083480B0039480B00EB
:104D9C0077480B006B480B00B5490B00BD490B0065
:104DAC005F480B0057480B004D480B0043480B0065
:104DBC00ED490B000000000000000000D1480B0082
:104DCC003D490B0015490B005D440B00E5480B00F9
:104DDC0001490B00F3480B000F490B00D3480B00A3
:104DEC00D7480B00000000000000000075490B00C4
:104DFC007F490B0089490B0093490B009D490B001F
:104E0C00A9490B00B5490B00BD490B00C5490B0066
:104E1C00D1490B00D9490B00E3490B00ED490B00BC
:104E2C00005245454E54206D616C6C6F6320737558
:104E3C0063636565646564002F6D6E742F776F72A4
:104E4C006B73706163652F776F726B7370616365E1
:104E5C002F4743432D31302D706970656C696E6539
:104E6C002F6A656E6B696E732D4743432D31302D60
:104E7C00706970656C696E652D34385F3230323014
:104E8C00313132345F313630363138303634312FBF
:104E9C007372632F6E65776C69622F6E65776C69C0
:104EAC00622F6C6962632F7374646C69622F726118
:104EBC006E642E6300000000C9400B0015440B000B
:104ECC0029440B004D440B00D5440B00E5440B006A
:104EDC0001450B00A1480B00C54A0B000000000067
:044EEC0000000000C2
:104EF000040000001400000003000000474E5500AD
:104F0000384D02C340BDC15509EB34FADCE181DB09
:044F10009E576759E8
:044F14000000000099
:104F1800384D0B0044E603200000000000000000AC
:104F28000000000000000000000000000000000079
:104F38000000000000000000000000000000000069
:104F48000000000000000000000000000000000059
:104F58000000000000000000000000000000000049
:104F68000000000000000000000000000000000039
:0C4F78000000000000000000ECE7032037
:104F8400FFFFFFFF00000102030405060708090AEA
:104F94000B0C0D0E0F101112131415161718191AE5
:084FA4001B1C1D1E1F2028002C
:044FAC0078563412ED
:04000003B000401CED
:00000001FF
