:02000002B0004C
:1040000000400B001C540B00000006000D000502D0
:0840100004016810000000002B
:044018000C510B003C
:10401C0009480A49884208B505D0094A824202D0AB
:10402C00121A00F0B3FF0748074A0021121A00F0D9
:10403C00BBFF014808BD00BF24E6032088530B00DA
:10404C0090E6032090E60320EDE7032070B5074EC1
:10405C00074C00F0CBFCA41BA4080025AC4200D1FB
:10406C0070BD56F8043B98470135F7E734530B0005
:10407C0058530B0000F015B808B500F021F8BDE856
:10408C00084000F06BBC00F01DBA00F01BBA00F049
:10409C0021BA0078B0FA80F0400970470123037010
:1040AC00704708B500F0AAFD4FF4165100F09AFDC8
:1040BC0000F03EFFBDE808404FF4165100F066BE1C
:1040CC0030B585B000F034FF394900F0A5FB4FF452
:1040DC007A7000F017FC00F091FD044600F028FF08
:1040EC000146684600F0E8FB00992046314C00F090
:1040FC00A6FB684600F0EEFA237D002B47D0022386
:10410C0023722368DB68C3B19A88012A06D09B68A6
:10411C00F9E79B688BB19A88012AFAD19A89022A0D
:10412C00F7D19A73237D002B31D02368DB68D3B190
:10413C009A88042A35D09B68F9E71F49102000F0B3
:10414C001BFF0546002830D01022002100F02CFF68
:10415C001A4B2B600123AB802369AB600223AB812C
:10416C00AB732561DEE71449102000F005FF05460E
:10417C00D8B11022002100F017FF104B2B60042344
:10418C00AB802369AB604EF66023EB60256168461B
:10419C00084900F02DFA009808B100F09BF905B021
:1041AC0030BD4EF66022DA60F1E72575EFE700BF0F
:1041BC0020510B009CE603209C520B0010000300C6
:1041CC0010B50021012000F0EFF80A4B0A4A9A6062
:1041DC000024C3E90044022000F0D6F8074B1A1D56
:1041EC001A60C3E90244064A5A6001221C611A751E
:1041FC0010BD00BF90E603200000FFFF9CE60320EB
:10420C001000030013B50446084659B1019100F0A3
:10421C0009FF23680199DB680246204602B0BDE81D
:10422C001040184702B010BD08B5024B1B689B68C4
:10423C00019308BD6802030008B5024B1B68DB68DC
:10424C00019308BD6802030008B5024B1B685B684C
:10425C00019308BD1802030008B5024B1B685B698B
:10426C00019308BD1802030008B5024B1B685B6C78
:10427C00019308BD4802030008B5024B1B685B693B
:10428C00019308BD6402030008B5024B1B68DB6890
:10429C00019308BD3C02030008B5024B1B681B6967
:1042AC00019308BD3C02030008B5024B1B685B6917
:1042BC00019308BD3C02030008B5024B1B689B69C7
:1042CC00019308BD3C02030008B5024B1B68DB6977
:1042DC00019308BD3C02030008B5024B1B689B6AA6
:1042EC00019308BD3C02030008B5024B1B68DB6A56
:1042FC00019308BD3C02030008B5024B1B681B6C04
:10430C00019308BD3C02030008B5024B1B681B68F7
:10431C00019308BD4C02030008B5024B1B685B6897
:10432C00019308BD4C02030008B5024B1B681B69C6
:10433C00019308BD4C02030008B5024B1B685B6976
:10434C00019308BD4C02030008B5024B1B689B6926
:10435C00019308BD4C02030008B5024B1B68DB69D6
:10436C00019308BD4C02030008B5024B1B681B6A85
:10437C00019308BD4C02030008B5024B1B681B6D72
:10438C00019308BD6002030008B5024B1B685B6813
:10439C00019308BD2002030008B5024B1B685B6942
:1043AC00019308BD2002030008B5024B1B68DB6AB1
:1043BC00019308BD2002030008B5034B1B68D3F81A
:1043CC008830019308BD00002002030008B5034BA0
:1043DC001B68D3F89430019308BD00002002030041
:1043EC0008B5034B1B68D3F8AC30019308BD000033
:1043FC002002030008B5024B1B685B68019308BDE3
:10440C004002030008B5024B1B689B68019308BD72
:10441C004002030008B5024B1B68DB68019308BD22
:10442C004002030008B5024B1B681B69019308BDD1
:10443C004002030008B5024B1B685B69019308BD81
:10444C004002030008B5024B1B689B69019308BD31
:10445C004002030008B5024B1B68DB69019308BDE1
:10446C004002030008B5024B1B681B6A019308BD90
:10447C004002030008B5024B1B681B6B019308BD7F
:10448C004002030008B5024B1B685B6B019308BD2F
:10449C004002030008B5024B1B681B6C019308BD5E
:1044AC004002030008B5024B1B685B6C019308BD0E
:1044BC004002030008B5024B1B68DB6B019308BD7F
:1044CC004402030008B5024B1B681B68019308BD2E
:1044DC001C02030008B5024B1B685B68019308BD06
:1044EC001C02030008B5024B1B689B68019308BDB6
:1044FC001C02030008B5024B1B681B6C019308BD22
:10450C001C02030008B5024B1B685B6C019308BDD1
:10451C001C020300002240681146FFF7A3BF0022D3
:10452C0040681146FFF7AEBF40680022FFF7A2BFFC
:10453C004068002281F00101FFF78CBF0023406826
:10454C001A461946FFF77EBF002340681A461946E3
:10455C00FFF770BF002240681146FFF763BF0022CF
:10456C0040681146FFF74EBF406800220221FFF75A
:10457C0051BF002340681A46FFF73CBF024B032291
:10458C005A60024A1A607047B4E603202C510B00A3
:10459C0010B50446006818B1FFF79CFF0023236098
:1045AC0010BD38B50C460546FFF7F2FF54B1208814
:1045BC00FFF788FF286028B122882146BDE83840E3
:1045CC0000F0E4BC38BD38B5B1F904308380D1F8C3
:1045DC000630C0F806304B8943810C460546FFF780
:1045EC00D7FF236813B12B600023236038BD000074
:1045FC00F0B52B4D0B7D04468BB00846AF1D002B40
:10460C0036D00B681B79002B32D0264B049300223A
:10461C0002A90430CDE90222FFF7E2FEDDF80E30EC
:10462C00C5F8063000B2BDF81230ADF80C00A88009
:10463C000299BB802846FFF7B4FF02A8FFF7A8FF3A
:10464C0000232360A380A37123814FF6FF73638142
:10465C00B5F90430A380D5F80630C4F80630BB8811
:10466C00296863812046FFF79CFF20460BB0F0BD04
:10467C0000262023CDE902360B4B009302AA3346C9
:10468C000A493220FFF778FE064B054802964FF692
:10469C00F26202A9CDE90323FFF795FFCDE700BF36
:1046AC00BCE603200000FFFF67510B0060510B00BC
:1046BC00054B02221A60054B054A9A600020C3E99B
:1046CC000000FFF761BE00BFC8E60320BCE6032074
:1046DC000000FFFF10B504460068FFF7FBFE204604
:1046EC0010BD10B50446006808B1FFF7F3FE0023B7
:1046FC00C4E90133236010BD38B504460D4600688B
:10470C000131FFF7EFFE10B1C4E90005012038BDFF
:10471C0010B50368044623B143688B4201D30120D2
:10472C0010BD2046FFF7E8FF0028F9D0A368002B46
:10473C00F5D122681370F2E737B50D461146019298
:10474C000446FFF7E5FF019A28B92046FFF7C9FF99
:10475C00204603B030BDA2602946206800F016FC4C
:10476C002268A3680021D154F2E7002313B5C0E9F5
:10477C00003304468360037341B10846019100F095
:10478C0051FC019902462046FFF7D6FF204602B0A5
:10479C0010BD70B505460E4609B9002070BD6AB152
:1047AC00846814442146FFF7B3FF0028F5D028682D
:1047BC00AB683146184400F02DFCAC600120EDE7ED
:1047CC0007B50023ADF8043001228DF8041001A9BF
:1047DC00FFF7DFFF03B05DF804FB00000248002385
:1047EC000360FFF741BD00BFCCE60320F8B50646D9
:1047FC000D468F180024BD420CD0336815F8011BF0
:10480C009B6830469847031E01DB1C44F3E7002CE1
:10481C0008BF1C462046F8BD08B5FFF7F3FC08BDE1
:10482C0003689B68184738B50D210546FFF7F8FF5C
:10483C000A2104462846FFF7F3FF204438BD38B55B
:10484C000546FFF7DFFC04462846FFF7ECFF204443
:10485C0038BD30B58BB00023012A8DF8243098BFB9
:10486C000A2209AC0D46B1FBF2F101FB125303F025
:10487C00FF03092B94BF30333733DBB2AA4204F861
:10488C00013DEFD92146FFF7BDFC0BB030BD10B593
:10489C000446FFF7E1FCE060236820465B6998471B
:1048AC00002808DAFFF7D8FCE368C01AA36898421E
:1048BC00F2D34FF0FF3010BD38B50D460749044612
:1048CC00FFF753FF2846FFF7E2FF002804DBC1B2D5
:1048DC002046FFF775FFF5E7204638BD8D510B00DC
:1048EC00014B024A1A607047D0E603208E510B0030
:1048FC00024B1A68024B1A60704700BF24E6032073
:10490C00D4E603200021FFF747BD0000014B002235
:10491C009A607047D8E60320014B1860704700BFBF
:10492C0028E6032008B50B4B43B100F067F9036888
:10493C001B699847002801DDAFF30080064B43B19B
:10494C0000F0F6FA03681B699847002801DDAFF305
:10495C00008008BD000000000000000008B5FFF753
:10496C00E1FFFFF779FC014B186008BD58E7032005
:10497C000548064A064908B5121A00F007FB054B14
:10498C00054A1A6008BD00BF00F4032004F403209C
:10499C0084530B0000F403201E1C279A07B5002338
:1049AC0000931A466FF07701FFF710FD03B05DF826
:1049BC0004FB000007B543880A2B08D0502B0BD101
:1049CC00094B1B684BB103B05DF804EB1847FFF7BC
:1049DC00E5FF03B05DF804FB002300931A466FF06B
:1049EC007701FFF7F3FCF4E7ECE6032010B512486F
:1049FC000021FFF787FD114B1A68114B9A42114B9E
:104A0C000CBF012200221A7001D0FFF7B1FFFFF793
:104A1C001BFC044600F0D0FA0B4B13B12046AFF34D
:104A2C00008000210848FFF745FDBDE8104007480D
:104A3C000021FFF7C1BC00BF25490B0000F4032087
:104A4C001E1C279AE8E6032000000000C1490B0059
:104A5C00704710B518210446FFF719FB204610BD0E
:104A6C00F0B5037D062B8DB00E4600F104074FF018
:104A7C00000412D000F1080515F8011D0A22304679
:104A8C00FFF7E7FEAF42044419D0002CF4D02E21DE
:104A9C003046FFF7C5FE0444EEE72F236A4639463D
:104AAC000A208DF80040FFF7E7FB684600F0BAFAE1
:104ABC0033680246DB686946304698470446204610
:104ACC000DB0F0BD10B5054B0446112240F8043B67
:104ADC00002100F069FA204610BD00BFB8510B0050
:104AEC000346074A10B543F8042B01F1100251F8A4
:104AFC00044B43F8044B9142F9D10A781A7010BD5B
:104B0C00B8510B0010B59DF8084044EA032343EA62
:104B1C00024242EA016104234160037510BD0000AA
:104B2C0007B5064B0360CB7800938B784A780978ED
:104B3C00FFF7E8FF03B05DF804FB00BFB8510B00B2
:104B4C00417470477047704708B50021007CFFF72F
:104B5C00FBFB40EAE07008BD08B50121007CFFF7C3
:104B6C00F3FB40EAE07008BD08B5007CFFF7E4FBFE
:104B7C0020EAE07008BD08B5007CFFF7D5FB20EA01
:104B8C00E07008BD13B50446007C0191FFF7D4FB1F
:104B9C000028019901DC607C20B1207CFFF7DCFB54
:104BAC0020EAE07002B010BD007CFFF7DDBB10B551
:104BBC0014210446FFF76BFA204610BD10B54FF4D4
:104BCC007A73044608460021C4E90113044B2360A0
:104BDC000123207463741146FFF796FB204610BD29
:104BEC00CC510B00007C0022FFF796BB10B51422B1
:104BFC000446002100F0D8F9204610BD10B50F4C2A
:104C0C0088B003A8FFF7F2FF2178BFF35B8F11F098
:104C1C0001010FD120460191FFF73BFA019948B1F0
:104C2C0003AA0748FFF7CAFF2046FFF737FA0548E3
:104C3C0000F0A6F9024808B010BD00BFF0E6032052
:104C4C00F4E60320514B0B00002240681146FFF79D
:104C5C00E9BB002240681146FFF704BC0022406803
:104C6C001146FFF70FBC40680022FFF703BC4068F9
:104C7C00002281F00101FFF7EDBB002340681A46CA
:104C8C001946FFF7DFBB002340681A461946FFF7A9
:104C9C00D1BB002240681146FFF7B4BB406800222C
:104CAC000221FFF7B7BB002340681A46FFF7A2BBEF
:104CBC00084B10B5282422461846002100F074F940
:104CCC00054B04804FF0FF32426004225A60034AC5
:104CDC001A6010BD10E7032008E70320FC510B00FD
:104CEC0070474174704708B5007CFFF7F5FA20EA6D
:104CFC00E07008BD08B5007CFFF7CEFA20EAE07042
:104D0C0008BD08B5007CFFF7D7FA40EAE07008BD93
:104D1C0008B5007CFFF7C8FA40EAE07008BD007CDB
:104D2C00FFF7D2BA37B5457C04462DB1207C03B0D1
:104D3C00BDE83040FFF7A8BA007C0191FFF7CCFA30
:104D4C0000280199F2DC284603B030BD10B51421BF
:104D5C000446FFF79CF9204610BD000010B54FF437
:104D6C007A730446084611460022C4E90123044B19
:104D7C002360012320746374FFF7BEFA204610BD34
:104D8C0038520B00007C0023FFF7AEBA0022FFF76D
:104D9C00F9BF002340681A46FFF72CBB406800227D
:104DAC000221FFF737BB002240681146FFF72ABBF0
:104DBC00002240681146FFF735BB002340681A46B5
:104DCC001946FFF737BB002340681A461946FFF710
:104DDC0039BB40680021FFF75DBB40680021FFF73D
:104DEC0061BB4068002281F00101FFF733BB4068D2
:104DFC000022FFF73FBB002240681146FFF742BB81
:104E0C00002240681146FFF72DBB2DE9F04395B009
:104E1C0014460D460746FFF755FE00211C220DA82F
:104E2C00009100F0C1F840230C9320466B460CAA6D
:104E3C000021FFF701FA044600284BD1024601215C
:104E4C006868FFF7EFFA0221804622466868FFF790
:104E5C00E9FA009E81462146002E3BD0002939D12B
:104E6C007368022B03D00A2B11D0F669F4E7B8F162
:104E7C00000FFAD0716906A8043107ADFFF750FE98
:104E8C000FCD3C1D0FC42B6823704146EDE7B9F1E3
:104E9C00000FEAD07469102201A800F085F80623EF
:104EAC008DF8143001AD04F10803183418685968F2
:104EBC002A4603C20833A3421546F7D101A906A816
:104ECC0007ADFFF70DFE0FCD3C1D0FC42B682370F3
:104EDC004946CAE70098FFF7A7F9384615B0BDE870
:104EEC00F0830000024B034A1A6000225A6070479C
:104EFC0038E7032068520B007047000038B50446B1
:104F0C0014252A46002100F04FF82580402507493A
:104F1C0025812846258200F031F804496060284636
:104F2C0000F02CF8E060204638BD00BF9C520B000E
:104F3C0030B50E4D2978BFF35B8F11F0010487B0AB
:104F4C0011D12846FFF7A5F868B101A8FFF7D6FFE5
:104F5C0001AA21460648FFF701FF2846FFF79EF8F5
:104F6C00044800F00DF8024807B030BD40E70320BC
:104F7C0044E70320054F0B00FFF785B8FFF785B812
:104F8C00002301461A46184600F054B80A449142D0
:104F9C0000F1FF3300D1704710B511F8014B03F845
:104FAC00014F9142F9D110BD02440346934200D106
:104FBC00704703F8011BF9E738B5104B1D68AB6B54
:104FCC000446B3B91820FFF77DFA0246A86320B94E
:104FDC000B4B0C484221FFF78DFA0B490B4BC0E9E8
:104FEC0000130B4B83600B23838100210120C2E94A
:104FFC000401AB6B00221C615A6138BD28E603200A
:10500C009D520B00B4520B000E33CDAB34126DE637
:10501C00ECDE0500034611F8012B03F8012B002AE6
:10502C00F9D17047034613F8012B002AFBD1181A4B
:10503C00013870472DE9F843DFF8B8800646D8F8F8
:10504C0000001F460D46914600F056F8254B1C6893
:10505C0034B9254C1C60254B13B11B68C4F888303F
:10506C0063681F2B07DDD8F8000000F047F84FF0FD
:10507C00FF30BDE8F8834EB3D4F8880088B91C4BD8
:10508C0023B9D8F8000000F038F8F0E74FF484703A
:10509C00FFF718FA0028F4D00023C0E94033C4F815
:1050AC008800636840F8239001229A4000EB83014A
:1050BC00D0F800311343C0F80031022EC1F88070D3
:1050CC0002BFD0F804311343C0F804316368D8F838
:1050DC0000005A1C0233626044F8235000F00EF8B2
:1050EC000020C6E7E8E703205CE70320000000008F
:1050FC00D1440B008CE603207047704770470000CA
:10510C001D400B0059400B0081400B0085400B00EB
:10511C000000000052000000000000000000000031
:10512C007F450B0075450B006B450B0061450B0073
:10513C0055450B0049450B00DF4D0B00E74D0B00AF
:10514C003D450B0035450B002B450B0021450B0055
:10515C00174E0B00776972696E670053797374652B
:10516C006D20736C65657020636F6E666967757210
:10517C006174696F6E20697320696E76616C696405
:10518C002E006170700025592D256D2D2564542538
:10519C00483A254D3A2553257A0061736374696D3D
:1051AC006500000000000000000000006D4A0B00CC
:1051BC005D4A0B005F4A0B0000000000000000007D
:1051CC00534B0B00BB4B0B00914B0B00F9470B00E7
:1051DC00834B0B00554B0B00654B0B00B54B0B0079
:1051EC00754B0B004D4B0B00000000000000000045
:1051FC00B34C0B00A94C0B009F4C0B00554C0B00F7
:10520C00934C0B00874C0B00DF4D0B00E74D0B0054
:10521C007B4C0B00734C0B00694C0B005F4C0B0070
:10522C00174E0B000000000000000000ED4C0B00BE
:10523C00594D0B00314D0B00F9470B00014D0B0084
:10524C001D4D0B000F4D0B002B4D0B00EF4C0B00AD
:10525C00F34C0B0000000000000000009F4D0B0001
:10526C00A94D0B00B34D0B00BD4D0B00C74D0B00F2
:10527C00D34D0B00DF4D0B00E74D0B00EF4D0B003A
:10528C00FB4D0B00034E0B000D4E0B00174E0B008D
:10529C00005245454E54206D616C6C6F63207375E4
:1052AC0063636565646564002F6D6E742F776F7230
:1052BC006B73706163652F776F726B73706163656D
:1052CC002F4743432D31302D706970656C696E65C5
:1052DC002F6A656E6B696E732D4743432D31302DEC
:1052EC00706970656C696E652D34385F32303230A0
:1052FC00313132345F313630363138303634312F4B
:10530C007372632F6E65776C69622F6E65776C694B
:10531C00622F6C6962632F7374646C69622F7261A3
:10532C006E642E6300000000CD410B0089450B001C
:10533C00BD460B00E9470B00ED480B00FD480B0088
:10534C0019490B00BD4C0B00F14E0B000000000086
:04535C00000000004D
:10536000040000001400000003000000474E550038
:10537000976FCF300EC8768B6A2584D98AAE91B5E7
:045380002B85C9AA06
:045384000000000025
:10538800A6510B002CE603200000000000000000DE
:105398000000000000000000000000000000000005
:1053A80000000000000000000000000000000000F5
:1053B80000000000000000000000000000000000E5
:1053C80000000000000000000000000000000000D5
:1053D80000000000000000000000000000000000C5
:0C53E8000000000000000000ECE70320C3
:1053F400FFFFFFFF00000102030405060708090A76
:105404000B0C0D0E0F101112131415161718191A70
:085414001B1C1D1E1F202800B7
:04541C007856341278
:04000003B000401CED
:00000001FF
