:02000002B0004C
:1040000000400B00AC6F0B00000006000D00050225
:0840100004010410000000008F
:04401800986B0B0096
:10401C0009480A49884208B505D0094A824202D0AB
:10402C00121A02F001FD0748074A0021121A02F089
:10403C0009FD014808BD00BF50E10320186F0B00BB
:10404C00BCE10320BCE10320EDE7032070B5074E73
:10405C00074C02F01BF9A41BA4080025AC4200D1AC
:10406C0070BD56F8043B98470135F7E7CC6E0B0052
:10407C00F06E0B0000F092B808B500F08BF9BDE8BB
:10408C00084002F0BBB801F0B3BE01F0B9BE007835
:10409C00B0FA80F0400970470123037070477047F5
:1040AC00037C13F008031EBFC36A406A1B1A002B63
:1040BC00ACBF18466FF000407047704710B5102128
:1040CC000446FFF7E2FF204610BD10B5342104462C
:1040DC00FFF7DBFF204610BD103000F0C5BE1030DE
:1040EC0000F0E3BD103000F049BF07B501228DF898
:1040FC00071010300DF1070100F040FF03B05DF820
:10410C0004FB0EB403B503AB002153F8042B01934D
:10411C0002F005F802B05DF804EB03B07047000044
:10412C0073B5044608462279A36832B1A3B90B498A
:10413C0002B0BDE8704001F0B7BF094A267B094DBB
:10414C000949647B012E18BF2946CDE900140749A3
:10415C00FFF7D7FF02B070BD054AEFE7BD6B0B0050
:10416C00B46B0B00B96B0B00B56B0B00D36B0B0076
:10417C00AC6B0B0007B501220DF1070100F0E7FC59
:10418C0001280CBF9DF807004FF0FF3003B05DF81D
:10419C0004FB08B51030FFF7EDFF08BDF0B56B4818
:1041AC00002319468FB01A46406801F0D9FD40F63D
:1041BC00C41001F0F7FF02F077F94FF4165102F03A
:1041CC0061F902F071F902F064F90028F9D002F0FB
:1041DC006BF95F495F4C01F067FF5F4B0193002364
:1041EC008DF8083004F58C665C4B0393012501AB0C
:1041FC00052204F26C413046ADF8105001F0FAF98A
:10420C0000284AD0266004F23C4000F063FE2946A8
:10421C00204601F099F804F23C450146002837D0BD
:10422C004C4901F23C4000F08CFC002835D094F84D
:10423C003C3413F0700F30D0494B4A4F1D6002F0E4
:10424C0033F94949494E01F042FF00234FF47A7289
:10425C00CDE902324649474A059305A844F20223A8
:10426C0005AD019700F03DFE0FCD06F110040FC413
:10427C000FCD0FC42B682360029B7360039BB3604C
:10428C00049BF360337C83B902F00EF93A491CE0CD
:10429C00204601F059F80028C2D102F005F937493F
:1042AC000FB0BDE8F04001F012BF02F0FDF8344948
:1042BC0001F0FAFE3349304601F009FFA4F1200069
:1042CC0000F008FE02F0F0F82F49304D01F0FFFE2F
:1042DC0000234FF47A72CDE902322549254A059321
:1042EC0005A805AC019700F0FCFD0FCC0FC50FCC59
:1042FC000FC523682B60029B7360039BB360049B08
:10430C00F360337CEBB102F0CFF8214901F0DFFE12
:10431C00A5F13007203D3846FFF7C2FE58B102F038
:10432C00C3F80368044628469E68FFF723FFC1B212
:10433C002046B047EFE715480FB0BDE8F04000F05D
:10434C00C9BD02F0B1F80C49AAE700BFF0E60320A2
:10435C00F06B0B00C8E10320886C0B0080F0FA02B4
:10436C0090E603209C6C0B00086C0B0058E60320B5
:10437C0004E603206A6C0B005C6C0B001D6C0B00DC
:10438C00346C0B004B6C0B00176C0B0068E60320B5
:10439C00736C0B007047000037B51F4C1F4D642227
:1043AC00C4F860241E4AC4F8702400230122636000
:1043BC00C4F83C34C4F8683484F87424C4F87834F1
:1043CC00A4F87C342978BFF35B8F11400BD12846BD
:1043DC000191FFF75CFE019928B1124801F074FDC0
:1043EC002846FFF759FE104A0E4BC4F86C344FF4B4
:1043FC007A710023C2E901310C49136111600C4A36
:10440C000320C2E90033A3F58033936003B0BDE809
:10441C00304001F059BC00BFC8E10320BCE10320CF
:10442C00886C0B00C0E1032058E603209C6C0B0049
:10443C004CE60320042904D800EB4100B0F801003D
:10444C0070470A299BBF01F1FF3100EB410001319C
:10445C00C08884BF00EB41008088704710B50446CB
:10446C00243000F063FE28B104F50C70BDE8104058
:10447C0000F05CBE10BD411E00F10A030020420892
:10448C0042EAC01011F8012F52FA80F08B42C0B2F0
:10449C00F5D170472DE9F047064610F8013B202B6B
:1044AC00FAD06A4D8E600024335DC3B12F2B16D029
:1044BC005C2B02D10020BDE8F087A3F12200C0B232
:1044CC001D2803D825FA00F0C007F3D403F0BF0071
:1044DC003C28EFD0203B5E2BECD80134E4E73319B9
:1044EC001846074610F8015B202DFAD02F2DF8D076
:1044FC0017604CB113F8012D2E2A01D0202A01D1BE
:10450C00013CF6E7FF2CD5DC4FF02033C1F811301D
:10451C004C60C1F80D304B614FF0000816F80830B4
:10452C002E2B01D0202B02D108F10108F6E7B8FAA6
:10453C0088F04009651E6B1C02D0735D2E2B14D1C4
:10454C004FF0000907274A46CA464FF0080EA0450F
:10455C0068DA16F80830202B03D02E2B07D1A8458B
:10456C0012D0002008F10108F1E7013DE3E7222B0E
:10457C0008D07C2B06D0A3F12A0CBCF1050F0AD86D
:10458C002D2B12D0A8455BD10A2F4AD00A2708221E
:10459C004FF0100EE6E7A3F13A0CBCF1050FF1D980
:1045AC00A3F15B0CBCF1020FECD9A3F1210CBCF113
:1045BC005D0FE7D8A845E7D0BA4230D8A3F1610C1B
:1045CC00BCF1190F1AD8203B4EEA0909DBB25FFA8D
:1045DC0089F902F1010C5FFA8CFC0A44BCF1060F5C
:1045EC00537301D881F80CC06246BBE7A84518DCB0
:1045FC00A8460A2708224FF0100EB2E7A3F1410C8F
:10460C00BCF1190F98BF4EEA0A0AE2E70B7B0120B6
:10461C00087019447E234B7331238B734BE70A2F9D
:10462C00E4D100204B7B202B3FF444AF0028EDD08D
:10463C001AEA090F18BF4FF0020981F800903AE707
:10464C00BA42ECD800205F23C3E700BF0101003160
:10465C002DE9F84391F80C9006460C4602257E276E
:10466C0001F10D086168A2686B189BB2114491426C
:10467C0006D012F8010B03EB431343409BB2F6E751
:10468C00B9F1030F28BF4FF0030909F10402D2B2AC
:10469C0003F00F01A018013A0929D2B294BF3031AE
:1046AC003731914541734FEA1313F1D104EB0903F0
:1046BC0000215F73304600F02AFB0121304600F0E8
:1046CC0007FB014628B97078B0FA80F04009BDE8C4
:1046DC00F88303786BB1C37A1B07EED40B224046E8
:1046EC0002F092F90028E8D10135ADB2642DB9D1B0
:1046FC00EDE70120EBE700002DE9F04F2DED028BEB
:10470C008BB00D4606930B78079013F0700F17467D
:10471C0005D100200BB0BDEC028BBDE8F08F079BE0
:10472C001B78002BF5D15368059313789C071FBF9A
:10473C00059B0C330D22B3FBF2F31ABF0133DBB232
:10474C00012300212846039300F0E1FA07F10D0341
:10475C004FF0000B08EE103ADA465C465E46CDF898
:10476C0010B0D9466B6901212846C3F34F1800F0ED
:10477C00AFFA0346002871D16B78002BC9D1069B88
:10478C009A05C6D503F00303013B012BC1D8049B4A
:10479C00002C08BF43460493039B9C42C0F0F1805D
:1047AC00B9F1000F40F00A81049B2846590100F032
:1047BC00AEFA0028ADD0039B03F1FF395FFA89F9FB
:1047CC004E464FF0000A4FF00F08002E00F00D81FE
:1047DC000021284600F07CFA0446002899D0AA68EB
:1047EC0092F824304E4543F001030CBF46F0400BC9
:1047FC00B34682F8243080F800B080F80B8080F843
:10480C000CA007F10D00FFF736FE84F81AA06073B8
:10481C0084F81BA00BF01F030D22013BD7F808C036
:10482C00534300220599994240F2D0801CF80310A2
:10483C00042A5FFA82FE02F1010000F2CD8004EB43
:10484C004202A2F801100D2803F101030246E9D13E
:10485C00013EF6B2B9E74FF0010983E70278E52A89
:10486C0000D07AB90499002C08BF414604910399F1
:10487C008C423CBF0134E4B2002A80D0E52A05D139
:10488C0000266FE703998C4238BF00242E2AF7D0FC
:10489C00D97A0F294AD116BB12F040063FF462AF09
:1048AC0002F01F0693F80DB0B2460D220AF1FF3844
:1048BC0002FB08F8059A4245E2D9A2EB08020892DD
:1048CC00002202EB080109911846D1B2FFF7B2FDA4
:1048DC0008998A420DD1002818BF002642E70AF138
:1048EC00FF3A5FFA8AFA5245CAD15A7B5A45DCD054
:1048FC00C6E7FF28C4D85FFA80FEAEF14101192942
:10490C00B9689CBF0EF120005FFA80FE0846099939
:10491C00415CA1F1410CBCF1190F9CBF2031C9B213
:10492C007145ADD101320D2ACBD11BE70807A7D4B5
:10493C005EB1BAF1010F7FF4ECAE1846FFF79BFDA8
:10494C0058457FF4E6AEB1460EE018EE101A0B2275
:10495C00184602F059F800287FF404AF97F800903D
:10496C0019F001097FF477AF069B19053FF5D1AE1D
:10497C00069B0798CDF800904246294600F00AFAAB
:10498C00C8E60021284600F0A3F9A0B96B78002BEB
:10499C007FF4BFAE284600F087F800283FF4B9AE8C
:1049AC00AB681B79012B3FF6FBAE039B1034E4B2D2
:1049BC00A342EFD8F4E60134E4B2EDE639462846DA
:1049CC00FFF746FE00287FF4EFAEA2E614BF4FF0CF
:1049DC00FF31002189B22BE7BEF10A0F94BF04EB23
:1049EC00420204EB400291802DE731462846D5F86F
:1049FC00148000F06DF9044600283FF48AAE2022A2
:104A0C00314602F01FF8D7F80D302360D7F811307B
:104A1C006360B7F815302381FB7DA3723B7803F0FC
:104A2C00180323730F4B1B689BB104F10E0104F1A7
:104A3C0010009847238A63822383E389E382AA6860
:104A4C0092F8243043F00103C8F34F1882F8243055
:104A5C008EE721232374282363740823A673E3733E
:104A6C00E8E700BF8CE6032038B504460D46242247
:104A7C00002101F0E7FFA560EB79102B03D0202B70
:104A8C0006D0002038BD202301202370A070F9E748
:104A9C004023F9E78378016943F00403837000F144
:104AAC001002806800F0F8BB2DE9F041017811F09C
:104ABC002005044603D000263046BDE8F08142694B
:104ACC00174B9A42F7D2FFF7E5FF06460028F2D0C3
:104ADC002169A06800F075FB0746A06805223946DD
:104AEC00243000F04BFB80460028E4D029464FF4DC
:104AFC00007201F0A7FF0125A3681A79AA4209D90F
:104B0C0018684246E91900F0A6FE0028D3D00135FA
:104B1C00EDB2F1E7636903EB42236361CCE700BFBD
:104B2C0000FE1F0010B5044680680A462430A169B7
:104B3C0000F024FB20B1A38803F00F0300EB43101B
:104B4C0010BD03780BB9FFF78FBF002070472DE91C
:104B5C00F74F0378044688461546002B5DD08278C3
:104B6C00D1075AD51A072DD5C36942699B1A9D42A4
:104B7C0028BF1D462E464FF0000904F1100B002EE5
:104B8C0000F08F8022786369A0689706C3F3080A47
:104B9C004FEA53211FD5006A0144A068BAF1000FF7
:104BAC0042D1B6F5007F3FD3C36A99423CD0B6F5EB
:104BBC00806F52D20068424600F0C4FD68B34FF4D7
:104BCC00007744E09B06D5D583681A894369C3EB0B
:104BDC0042139BB2CBE790F8059009EA0109BAF1B0
:104BEC00000F08D1B9F1000F05D15BB951064CBFCC
:104BFC00036A236A23612169A06800F0E2FA09EBD9
:104C0C000001CAE721695A4600F0E1FA002804DBEA
:104C1C00F1D1237813F0700F43D1637843F0020382
:104C2C0063704FF0FF303DE0CAF50077B7424FF0AC
:104C3C00000200F1240028BF374600F09FFA00283C
:104C4C00EBD000EB0A013A46404601F0EDFE6369F9
:104C5C003B44B8446361F61B91E7227892064FEA15
:104C6C00562A06D40279A2EB0902D2B2924528BF89
:104C7C00924699424FEA4A2708D2A06853460068E8
:104C8C00424600F0A7FD0028E1D1C6E753448B4211
:104C9C00F3D92430019100F049FA01990028ECD1A4
:104CAC00BBE7A81B03B0BDE8F08F73B501220DF173
:104CBC000701D0E904560446FFF749FF01280ABF53
:104CCC009DF807004FF0FF30C4E9045602B070BDE8
:104CDC0037B5436913F4F07F0446C3F3431500D092
:104CEC0099B901220DF107012046FFF730FF40B2C0
:104CFC00012802D0002003B030BD63691F33A068C7
:104D0C006361303000EB4510F5E72033F7E72DE910
:104D1C00F0410278076904460D4662B14069884249
:104D2C0002D019B921616561012006E0160706D58C
:104D3C00E3698B420BD227610020BDE8F08191061C
:104D4C0005D5A3681B89B5EB431FECD9F3E7D4F861
:104D5C0008C09CF80660431E06F109016E1ECB408C
:104D6C00CE40B34200D898B953064CBFDCF8203083
:104D7C00236A236104F11008002ED4D02169A068A5
:104D8C00424600F024FA002806F1FF36F4DCD2E7A4
:104D9C00F61AEFE7F8B50F46044615460021242213
:104DAC001E4601F04FFEB868A060A58005F00F0507
:104DBC003B6AE3606A0100EB451595F83B301F0731
:104DCC0044D403F01703237095F83B1011F0180F1F
:104DDC0004BF43F0080323709DF81830E37006F00D
:104DEC000303012B2CD0022B28D07BBB71052DD4B7
:104DFC000123A370A1788B0704D52378DF0625D473
:104E0C00DD0723D4B31123F07F0306F008052B43F1
:104E1C000B43A370C36AA3618318B3F84420B3F89F
:104E2C004A1041EA0241720513D559B9A37843F0EF
:104E3C000403A370730410D40120F8BD0323D8E736
:104E4C000223D6E700F063FA0028EFD1002020708F
:104E5C00F3E72162DB6CE361ECE7E1692046FFF7E5
:104E6C0056FF0028E8D1F1E738B5037804460BB9B2
:104E7C00012038BD83785A0723D50121FFF752FE54
:104E8C00054628B9637843F0010363700020F0E70E
:104E9C000378E52BF6D023781B0744BFE369C36185
:104EAC00236A4383638C8382094B1B682BB100F10B
:104EBC001601183098472B8B6B82A37823F00403D0
:104ECC00A370A068FFF7CAFA0028DBD0D0E700BFB8
:104EDC008CE6032010B50446FFF7C6FF00232370B1
:104EEC0010BDF0B593B01F460023099303780192CF
:104EFC0006460C4613B1002013B0F0BD0B7813F02E
:104F0C00700FF8D013782F2B12D1019A13782F2B06
:104F1C0002D101320192F8E7A1681BB93046FFF7C4
:104F2C0010FEE9E709A8FFF79FFD0028E3D009ACC4
:104F3C00019801AA03A9FFF7ADFA0028DBD0019B69
:104F4C001B789BB1002303AA21463046FFF7D4FB04
:104F5C000028D0D035460FCD09AC0FC40FCD0FC4EF
:104F6C002B6823603046FFF7B5FFE0E73B4603AA0A
:104F7C0021463046FFF7C0FBBEE700002DE9F047A5
:104F8C00037889461907044617465BD583789A0738
:104F9C0058D51B0751D46369DB43BB4252D3B84687
:104FAC0004F1100A6669B8F1000F00F09180A06856
:104FBC004379C6F3080513EA56260ED16DB921695B
:104FCC00002946D0524600F002F900283ADB04D101
:104FDC002046FFF75FFD002834D02169A06800F05F
:104FEC00F0F83118A06815B9B8F5007F3FD2C5F5B7
:104FFC000076464528BF4646002D36D16269E369E6
:10500C009A4234BF01220522243000F0B7F8C8B10F
:10501C00284432464946354401F006FDB5F5007F7B
:10502C0004D1A068243000F081F858B1636933448E
:10503C006361B144A8EB0608B4E7C169FFF767FEEA
:10504C000028A8D1637843F0010363704FF0FF3060
:10505C0050E0236A3BB92046FFF71CFD0028F1D035
:10506C0023692362B9E72361B7E70122CCE7B8F5DE
:10507C00806FC26A1BD390F804C0ACEB0606F3B287
:10508C004FEA582E734528BF734691424FEA432688
:10509C0007D31A448A4282BF4FF0FF3280F8245063
:1050AC00C262A5684A46286800F04BFCBDE79142F5
:1050BC0002BF4FF0FF3380F82450C362A3684A4606
:1050CC00186800F0C8FB0028BCD04FF40076ADE7A0
:1050DC00E269A378B24204D2E66143F00403A37000
:1050EC0003E0084A1268002AF7D194F90230002B29
:1050FC0002DB3846BDE8F0872046FFF7B5FE0028F6
:10510C00F7D19FE78CE6032013B50446084659B146
:10511C00019101F0CDFC23680199DB680246204621
:10512C0002B0BDE81040184702B010BD37B5037887
:10513C00DA07044620D54368816800F10C02186830
:10514C00019200F088FB019A054618B90025284603
:10515C0003B030BD23789B0704D4237823F00103DC
:10516C002370F4E7D4E9013019690144186800F0A0
:10517C0072FB0028F1D1E9E70125E8E770B58368F7
:10518C008B4204460E46154609D0FFF7CFFF08B9EF
:10519C00002070BD6B070AD500232370A66022780F
:1051AC0005F003052046154300F80C5BF1E7636836
:1051BC0004F10C021868314600F0C4FA0028EBD157
:1051CC00E6E7837940690239994008447047012920
:1051DC0070B505460C46164602D84FF0FF3070BD30
:1051EC00C3698B42F9D3C379202B16D18169022272
:1051FC0001EBD41100F50C70FFF7C0FF0028ECD0C8
:10520C0004F07F0450F8243023F07043EA699A428A
:10521C0026BF336001200020E1E7102BDDD1C1F364
:10522C00072381690222194400F50C70FFF7A6FFD1
:10523C000028D2D0E4B230F81430E7E7012938B5B1
:10524C000C46154601D8002038BDC3698B42FAD3F1
:10525C00C379202B0FD18169032201EBD41100F506
:10526C000C70FFF78BFF0028EDD004F07F0440F8A2
:10527C0024500120E8E7102BE5D1C1F30723816905
:10528C000322194400F50C70FFF778FF0028DAD0E0
:10529C00E4B220F81450ECE72DE9F341C4688C42D9
:1052AC0005460E46904601D3012701E00C46002727
:1052BC00EB690134A34202D2C7B9EC68F4E7A64209
:1052CC0014D001AA21462846FFF781FF00280DDBE8
:1052DC00EED0019B002BEBD107B1EC606FF070426C
:1052EC0021462846FFF7AAFF074620B90027384673
:1052FC0002B0BDE8F08116B9C8F80040F7E72246C5
:10530C0031462846FFF79AFF0028F5D1EEE773B532
:10531C0005460C4601AA21462846FFF758FF061EF3
:10532C0010DB002221462846FFF788FF50B1EB68BE
:10533C00A34224BF04F1FF34EC60019C002EE9D1A0
:10534C0002B070BD0020FBE7012370B50022C360E2
:10535C004FF0FF330446C27100F12406806280F8DE
:10536C002420C362C0F8340280F83022C0F83832EE
:10537C000D46B9B1042901D9002070BD1146304643
:10538C00FFF7FCFE0028F7D000EB051393F8AE31C5
:10539C005B06F1D105F11B0100EB0110D0F80650B2
:1053AC00002DE9D0002229463046FFF7E7FE002801
:1053BC00E2D0B0F80B30B3F5007FDDD1037C022BCB
:1053CC00DAD1C389002BD7D0417B21714B1E63717D
:1053DC000023A37109260123994207D0013ECBD0AB
:1053EC00A2795B000132DBB2A271F5E7C18A01B987
:1053FC00416A2161C3892B44A361B0F81120228139
:10540C0003EB41032362B0F81110490101F2FF11C3
:10541C0003EB51236361B0F8132002B9026AE91A55
:10542C00A3791144D9404B1CE36140F6F4739942C3
:10543C0002D80C23E3719FE74FF6F473994285BFB2
:10544C00C36A236210232023E371012095E700F047
:10545C00CBBA00F0AEBA000070B50E4E0D46144635
:10546C0000F00AFB3368C01A0B4B984208D900F0C5
:10547C000BFB0A4B186000F0ABFC00F0FDFA30603F
:10548C0000F002FB80B2401BA042D4BF00200120E0
:10549C0070BD00BF94E60320A086010040E7032006
:1054AC0038B5057A04464DB9406800F06BFA63686C
:1054BC002946187D01F007FA0123237238BD10B577
:1054CC00037A04466BB143680121187D01F0FBF9A6
:1054DC006068FF21FFF7BBFF606800F067FA0023EC
:1054EC00237210BDF8B504460D46164600F0CCFAF2
:1054FC0087B26068FFF7ADFFFF2860720ED14FF4E2
:10550C007A7239462046FFF7A7FF0028F1D05523C1
:10551C0020462370FFF7D3FF0020F8BDFE2801D0F2
:10552C005023F5E760683246294600F047FA60726E
:10553C0008B16023ECE76068FFF78BFF6068FFF74A
:10554C0088FF0120E9E770B504460E4600F09CFA8E
:10555C0085B2324629462046FFF77EFF30B9606897
:10556C00FFF777FFFF28F4D1012070BD0020FCE786
:10557C00F7B5037A019204460D460BB9FFF790FF7D
:10558C0025B14FF496712046FFF7DDFF606845F0BA
:10559C004001FFF75CFF032601AFB95D6068FFF7C0
:1055AC0056FF013EF9D2002D60680CBF9521872172
:1055BC00FFF74DFF6068FFF74CFF0B256068FFF7A6
:1055CC0048FF0306607203D5013D15F0FF05F5D1C8
:1055DC0003B0F0BD70B504460D46164637210022C7
:1055EC00FFF7C6FF324629462046BDE87040FFF75C
:1055FC00BFBF00002DE9F0410025057205708572D2
:10560C004160044690461E4600F03EFA414607466D
:10561C00606800F0BBF96368494A1D720125DA60C5
:10562C001D822046FFF73CFF63682946187D01F078
:10563C004AF90A256068FF21013DFFF708FF15F0C4
:10564C00FF05F7D163682946187D01F03CF90A255E
:10565C00002211462046FFF78BFF0128804618D008
:10566C00013D15F0FF0507D1202320462370FFF7DD
:10567C0026FF0020BDE8F0816068FD21FFF7E7FE02
:10568C004FF402786068FFF7E4FEB8F10108F9D135
:10569C00DEE74FF4D57208212046FFF769FF052895
:1056AC0014D184F80A800025BFB22A46292120464D
:1056BC00FFF790FF0246D8B14FF4FA623946204604
:1056CC00FFF7CAFE0028F0D04323CEE7042560681C
:1056DC00FFF7BFFE013D15F0FF056072F7D1AA2858
:1056EC0004D10223A3724FF08045DDE72523BCE7EC
:1056FC00A37A022B18D13A212046FFF739FF08B1C3
:10570C003723B2E76068FFF7A4FE00F0C000C028A2
:10571C0004BF0323A3726068FFF79BFE6068FFF76A
:10572C0098FE6068FFF795FE2046FFF7C8FE636899
:10573C003079B168B2891A821872D960012099E760
:10574C0090D0030038B5837A032B18BF4902154655
:10575C000A4611210446FFF70BFF30B130232370AA
:10576C002046FFF7ACFE00250BE029464FF40072F3
:10577C002046FFF7B7FE05460028F1D02046FFF77C
:10578C009EFE284638BD10B5837A032B0A4618BFF7
:10579C004A0212210446FFF7EBFE30B131232046BA
:1057AC002370FFF78CFE002010BD0120FCE710B524
:1057BC0000220C210446FFF7DBFE30B128232046E3
:1057CC002370FFF77CFE002010BD2046FFF777FE0C
:1057DC000120F9E7F8B5044616461F46FFF7D3FF3C
:1057EC0068B10025ABB29F4206EB452109D94FF4B5
:1057FC0000722046FFF776FE01350028F2D100201A
:10580C00F8BD2046BDE8F840FFF7D1BF38B50446D7
:10581C0015464068FFF71BFE4FF40072606829467E
:10582C0000F0E6F86068FF21FFF711FE6068FF21C9
:10583C00FFF70DFE6068FFF70CFE607200F01F00B2
:10584C00052806D0572320462370FFF738FE00208A
:10585C0038BD0120FCE770B5837A032B18BF4902D1
:10586C0015460A4618210446FFF782FE064630B15B
:10587C00322323702046FFF722FE00251FE02A4624
:10588C00FE212046FFF7C2FF0028F3D04FF4FA6147
:10589C002046FFF758FE054608B95A23E9E7324679
:1058AC000D212046FFF764FE08B12923E1E760686B
:1058BC00FFF7CFFD0028F8D12046FFF700FE284661
:1058CC0070BD13B501914FF4FA610446FFF73BFE2E
:1058DC00019A30B95B2323702046FFF7F0FD0020BE
:1058EC0005E0FC212046FFF791FF0028F4D002B020
:1058FC0010BD10B5837A032B0A4618BF4A02192132
:10590C000446FFF735FE30B1332320462370FFF7F2
:10591C00D6FD002010BD0120FCE738B54FF4FA612C
:10592C000446FFF710FE054630B956232370204677
:10593C00FFF7C5FD284638BD6068FD21FFF787FDE0
:10594C00F5E7F8B5044616461F46FFF7D2FF70B1CF
:10595C000025BD4206EB4521204604D0FFF7B1FFE0
:10596C0028B10135F5E7BDE8F840FFF7D6BF204672
:10597C00FFF7A5FD0020F8BD014B01221A707047FE
:10598C0098E60320011D006800F0D6BA10B5044655
:10599C000175006800F0A2FA207D012100F082FF61
:1059AC00207D0121BDE8104000F08DBF006800F0A3
:1059BC00A9BA0068FF2100F02DBB000037B51346D3
:1059CC00074A00920025074C006825700A462946B4
:1059DC0000F026FB2378002BFCD0002003B030BD58
:1059EC0085590B0098E60320006800F013BB0000FB
:1059FC0037B51346064A00920025064C0068257000
:105A0C002A4600F00DFB2378002BFCD003B030BDF0
:105A1C0085590B0098E6032008B5024B1B689B6860
:105A2C00019308BD6802030008B5024B1B68DB68D4
:105A3C00019308BD6802030008B5024B1B689B6804
:105A4C00019308BD2C02030008B5024B1B68DB68F0
:105A5C00019308BD2C02030008B5024B1B681B699F
:105A6C00019308BD2C02030008B5024B1B685B6850
:105A7C00019308BD1802030008B5024B1B681B6993
:105A8C00019308BD1802030008B5024B1B685B6943
:105A9C00019308BD1802030008B5024B1B685B6C30
:105AAC00019308BD4802030008B5024B1B685B69F3
:105ABC00019308BD6402030008B5024B1B68DB6848
:105ACC00019308BD3C02030008B5024B1B681B691F
:105ADC00019308BD3C02030008B5024B1B685B69CF
:105AEC00019308BD3C02030008B5024B1B689B697F
:105AFC00019308BD3C02030008B5024B1B68DB692F
:105B0C00019308BD3C02030008B5024B1B681B6ADD
:105B1C00019308BD3C02030008B5024B1B689B6A4D
:105B2C00019308BD3C02030008B5024B1B681B6CBB
:105B3C00019308BD3C02030008B5024B1B681B6AAD
:105B4C00019308BD2802030008B5024B1B685B6A71
:105B5C00019308BD2802030008B5024B1B689B6A21
:105B6C00019308BD2802030008B5024B1B68DB6AD1
:105B7C00019308BD2802030008B5024B1B681B6B80
:105B8C00019308BD2802030008B5024B1B685B6B30
:105B9C00019308BD2802030008B5024B1B681B6C5F
:105BAC00019308BD2802030008B5024B1B681B6853
:105BBC00019308BD3002030008B5024B1B685B69FA
:105BCC00019308BD3002030008B5024B1B68DB696A
:105BDC00019308BD3002030008B5024B1B681B6A19
:105BEC00019308BD3002030008B5024B1B685B6AC9
:105BFC00019308BD3002030008B5024B1B689B6A79
:105C0C00019308BD3002030008B5024B1B689B6B67
:105C1C00019308BD3002030008B5024B1B68DB6B17
:105C2C00019308BD3002030008B5024B1B681B6CC6
:105C3C00019308BD3002030008B5024B1B685B6C76
:105C4C00019308BD3002030008B5024B1B681B68AA
:105C5C00019308BD4C02030008B5024B1B685B683E
:105C6C00019308BD4C02030008B5024B1B681B696D
:105C7C00019308BD4C02030008B5024B1B685B691D
:105C8C00019308BD4C02030008B5024B1B689B69CD
:105C9C00019308BD4C02030008B5024B1B68DB697D
:105CAC00019308BD4C02030008B5024B1B681B6A2C
:105CBC00019308BD4C02030008B5024B1B685B6ADC
:105CCC00019308BD4C02030008B5024B1B685B68CE
:105CDC00019308BD2002030008B5024B1B685B69E9
:105CEC00019308BD2002030008B5034B1B68D3F8D1
:105CFC008830019308BD00002002030008B5034B57
:105D0C001B68D3F89430019308BD000020020300F7
:105D1C0008B5024B1B685B68019308BD4002030089
:105D2C0008B5024B1B689B68019308BD4002030039
:105D3C0008B5024B1B68DB68019308BD40020300E9
:105D4C0008B5024B1B681B69019308BD4002030098
:105D5C0008B5024B1B685B69019308BD4002030048
:105D6C0008B5024B1B689B69019308BD40020300F8
:105D7C0008B5024B1B68DB69019308BD40020300A8
:105D8C0008B5024B1B681B6A019308BD4002030057
:105D9C0008B5024B1B681B6B019308BD4002030046
:105DAC0008B5024B1B685B6B019308BD40020300F6
:105DBC0008B5024B1B681B6C019308BD4002030025
:105DCC0008B5024B1B685B6C019308BD40020300D5
:105DDC0008B5024B1B689B68019308BD4402030085
:105DEC0008B5024B1B68DB6B019308BD4402030032
:105DFC0008B5024B1B681B68019308BD1C0203000D
:105E0C0008B5024B1B685B68019308BD1C020300BC
:105E1C0008B5024B1B685B6A019308BD1C020300AA
:105E2C0008B5024B1B681B6C019308BD1C020300D8
:105E3C0008B5024B1B685B6C019308BD1C02030088
:105E4C00002240681146FFF79BBF002240681146B4
:105E5C00FFF7A6BF40680022FFF79ABF40680022F8
:105E6C0081F00101FFF784BF002340681A461946F0
:105E7C00FFF776BF002340681A461946FFF768BF44
:105E8C00002240681146FFF75BBF002240681146B4
:105E9C00FFF746BF406800220221FFF749BF0023ED
:105EAC0040681A46FFF734BF024B03225A60024A7D
:105EBC001A6070479CE60320C46C0B000021FFF7AE
:105ECC00BBBE0021FFF7B0BE10B5044608462170DA
:105EDC00FFF77AFE00236360204610BD13B504461D
:105EEC000078FFF7EEFF58B9207801904FF6FF715C
:105EFC00FFF75AFE019802B0BDE81040FFF7DEBF75
:105F0C0002B010BD0078FFF7D9BF0000400830B5D3
:105F1C001860002418688842E5B206D90134082CB0
:105F2C0002D040081860F5E70725024B5B5D137043
:105F3C0030BD00BFF86C0B002DE9F04306468FB066
:105F4C0000780C46FFF7BDFF00281BDB35781422C8
:105F5C00002109A800F076FD0B23002209A9284690
:105F6C00ADF82430FFF740FE9DF82D3013B19DF8AD
:105F7C002C5055B10027B946B846012523795DB19F
:105F8C00C3B100200FB0BDE8F083DDF830809DF880
:105F9C0034909DF83570F1E7002B35D1A36843455B
:105FAC0008D18DF820908DF82170BDF82020A389A0
:105FBC009A42E6D00023A1688DF80F300A9804AB02
:105FCC000DF10F02FFF7A2FF217985B989B9A368FA
:105FDC0043450ED38DF820908DF82170BDF820200C
:105FEC00A3899A4205D1049B434502D1C9E70029F4
:105FFC00F9D100230193637B00939DF80F20237B41
:10600C003078FFF709FEBCE7CDE900552B462A4650
:10601C000121F5E708B50078FFF7CEFDC0B208BD49
:10602C0030B587B004460A9D00950078FFF7E4FD73
:10603C003DB9207802A9FFF7E7FD9DF81430DB0786
:10604C00F7D407B030BD0000054B02221A60054B97
:10605C00054A9A600020C3E90000FFF735BE00BF77
:10606C00B0E60320A4E603200000FFFF0248002353
:10607C000360FFF711BD00BFB4E60320F8B5064678
:10608C000D468F180024BD420CD0336815F8011B47
:10609C009B6830469847031E01DB1C44F3E7002C39
:1060AC0008BF1C462046F8BD08B5FFF72DF808BD03
:1060BC0003689B68184738B50D210546FFF7F8FFB4
:1060CC000A2104462846FFF7F3FF204438BD38B5B3
:1060DC000546FFF719F804462846FFF7ECFF204465
:1060EC0038BD30B58BB00023012A8DF8243098BF11
:1060FC000A2209AC0D46B1FBF2F101FB125303F07D
:10610C00FF03092B94BF30333733DBB2AA4204F8B8
:10611C00013DEFD92146FEF7F7FF0BB030BD2DE95D
:10612C00F04186B000AF05460E46381D14211446CA
:10613C003B60FFF76DFE13280ED8391D2846FEF77D
:10614C00E3FF04461EB12846FFF7B5FF0444204682
:10615C001837BD46BDE8F08100F1080323F00703B2
:10616C00E846ADEB030D2246411C3B686846FFF741
:10617C004FFE69462846FEF7C7FF0446C546E1E7D1
:10618C00014B024A1A607047B8E60320006D0B0001
:10619C00024B1A68024B1A60704700BF50E1032093
:1061AC00BCE603200021FFF797BD0000014B002245
:1061BC009A607047C0E60320014B1860704700BF1F
:1061CC0054E1032008B50B4B43B100F06DF90368A3
:1061DC001B699847002801DDAFF30080064B43B1E3
:1061EC0000F0A6FB03681B699847002801DDAFF39C
:1061FC00008008BD000000000000000008B5FFF79B
:10620C00E1FFFFF741FC014B186008BD40E703209C
:10621C000548064A064908B5121A00F005FC054B5C
:10622C00054A1A6008BD00BF00F4032004F40320E3
:10623C00146F0B0000F403201E1C279A07B50023D3
:10624C0000931A466FF07701FFF758FD03B05DF825
:10625C0004FB000007B543880A2B08D0502B0BD148
:10626C00094B1B684BB103B05DF804EB1847FFF703
:10627C00E5FF03B05DF804FB002300931A466FF0B2
:10628C007701FFF73BFDF4E7D4E6032010B5124885
:10629C000021FFF7CDFD114B1A68114B9A42114B9F
:1062AC000CBF012200221A7001D0FFF7B1FFFFF7DB
:1062BC00DBFB044600F0CEFB0B4B13B12046AFF3D7
:1062CC00008000210848FFF78BFDBDE8104007480F
:1062DC000021FFF709BD00BFC5610B0000F40320CE
:1062EC001E1C279AD0E603200000000061620B0000
:1062FC00704710B518210446FDF7C7FE204610BDA7
:10630C00F0B5037D062B8DB00E4600F104074FF05F
:10631C00000412D000F1080515F8011D0A223046C0
:10632C00FFF7DFFEAF42044419D0002CF4D02E212D
:10633C003046FFF7BDFE0444EEE72F236A4639468C
:10634C000A208DF80040FFF7AFFB684600F0B0FB69
:10635C0033680246DB686946304698470446204657
:10636C000DB0F0BD10B5054B0446112240F8043BAE
:10637C00002100F067FB204610BD00BF286D0B000C
:10638C000346074A10B543F8042B01F1100251F8EB
:10639C00044B43F8044B9142F9D10A781A7010BDA2
:1063AC00286D0B0010B59DF8084044EA032343EA1E
:1063BC00024242EA016104234160037510BD0000F2
:1063CC0007B5064B0360CB7800938B784A78097835
:1063DC00FFF7E8FF03B05DF804FB00BF286D0B006E
:1063EC00417470477047704708B50021007CFFF777
:1063FC004BFC40EAE07008BD08B50121007CFFF7BA
:10640C0043FC40EAE07008BD08B5007CFFF734FCA3
:10641C0020EAE07008BD08B5007CFFF725FC20EAF7
:10642C00E07008BD13B50446007C0191FFF724FC15
:10643C000028019901DC607C20B1207CFFF72CFC4A
:10644C0020EAE07002B010BD007CFFF72DBC10B547
:10645C0014210446FDF719FE204610BD10B54FF46B
:10646C007A73044608460021C4E90113044B2360E7
:10647C000123207463741146FFF7E6FB204610BD20
:10648C003C6D0B00007C0022FFF7E6BB007CFFF7A5
:10649C0013BCFFF7FBBF10B514220446002100F01B
:1064AC00D1FA204610BD000010B50F4C88B003A8DF
:1064BC00FFF7F1FF2178BFF35B8F11F001010FD1D2
:1064CC0020460191FDF7E3FD019948B103AA074865
:1064DC00FFF7C4FF2046FDF7DFFD054800F08EFAFC
:1064EC00024808B010BD00BFD8E60320DCE603204C
:1064FC00F1630B00002240681146FFF721BC00221B
:10650C0040681146FFF73CBC002240681146FFF77B
:10651C0047BC40680022FFF73BBC4068002281F07A
:10652C000101FFF725BC002340681A461946FFF706
:10653C0017BC002340681A461946FFF709BC002215
:10654C0040681146FFF7ECBB406800220221FFF7C0
:10655C00EFBB002340681A46FFF7DABB084B10B5B7
:10656C00282422461846002100F06CFA054B0480C2
:10657C004FF0FF32426004225A60034A1A6010BD89
:10658C00F8E60320F0E603206C6D0B0070474174B5
:10659C00704708B5007CFFF7BFFA20EAE07008BD31
:1065AC0008B5007CFFF790FA20EAE07008BD08B54A
:1065BC00007CFFF799FA40EAE07008BD08B5007C52
:1065CC00FFF78AFA40EAE07008BD007CFFF794BA46
:1065DC0037B5457C04462DB1207C03B0BDE8304076
:1065EC00FFF76ABA007C0191FFF796FA002801992F
:1065FC00F2DC284603B030BD10B514210446FDF77B
:10660C0044FD204610BD000010B54FF47A730446CB
:10661C00084611460022C4E90123044B23600123E0
:10662C0020746374FFF780FA204610BDA86D0B0030
:10663C007047F8B5064615460C468F18BC4206D076
:10664C00336814F8011B9B6830469847F6E72846D8
:10665C00F8BD007C0022FFF76FBA007C0021FFF729
:10666C0073BA007C0021FFF777BA007C0021FFF79A
:10667C007BBA007C0021FFF77FBA10B514210446C9
:10668C00FDF703FD204610BD38B5044615464FF402
:10669C007A730022C4E90123094B21740846236054
:1066AC002946FFF779FABF3008D16B69DB0705D5AE
:1066BC006868FFF7A5FBE868FFF7A2FB204638BD2A
:1066CC00D86D0B00002340681A46FFF721BB4068C9
:1066DC0000220221FFF72CBB002240681146FFF775
:1066EC001FBB002240681146FFF72ABB00234068FD
:1066FC001A461946FFF72CBB002340681A46194668
:10670C00FFF72EBB40680021FFF752BB4068002109
:10671C00FFF756BB4068002281F00101FFF728BB50
:10672C0040680022FFF734BB002240681146FFF797
:10673C0037BB002240681146FFF722BB2DE9F0431E
:10674C0095B014460D460746FFF70CFE00211C229F
:10675C000DA8009100F076F940230C9320466B466F
:10676C000CAA0021FFF760F9044600284BD1024621
:10677C0001216868FFF7E4FA022180462246686826
:10678C00FFF7DEFA009E81462146002E3BD0002901
:10679C0039D17368022B03D00A2B11D0F669F4E7B8
:1067AC00B8F1000FFAD0716906A8043107ADFFF7F4
:1067BC0007FE0FCD3C1D0FC42B6823704146EDE73F
:1067CC00B9F1000FEAD07469102201A800F03AF96F
:1067DC0006238DF8143001AD04F108031834186841
:1067EC0059682A4603C20833A3421546F7D101A9BA
:1067FC0006A807ADFFF7C4FD0FCD3C1D0FC42B68D9
:10680C0023704946CAE70098FFF706F9384615B0D9
:10681C00BDE8F083024B034A1A6000225A607047AD
:10682C0020E70320006E0B00232813B502D90020AB
:10683C0002B010BDA0F10B03022B1AD8174C217813
:10684C00BFF35B8F11F001010BD120460191FDF7D5
:10685C001EFC019928B11248FFF736FB2046FDF7C4
:10686C001BFC0F4B1878FFF7B7F90028DFD101207C
:10687C00DEE7012809D800F09BF80021007CFFF727
:10688C0083F980F00100C0B2D2E709380128EED8B4
:10689C0000F04EF8007CFFF737F9F2E7BCE103207B
:1068AC00C0E10320232838B504460D460AD8FF2939
:1068BC0008D0FFF7B9FF28B129462046BDE838407B
:1068CC00FFF7BAB838BD38B504460D46FFF7BCF82B
:1068DC00FF2810D0062804D84D2323FA00F0C30754
:1068EC0009D42046FFF7A0FF28B129462046BDE871
:1068FC003840FFF7B1B838BD7047000038B50446D2
:10690C0014252A46002100F09DF8258040250749D2
:10691C0025812846258200F06FF8044960602846DE
:10692C0000F06AF8E060204638BD00BF346E0B0002
:10693C0030B50E4D2978BFF35B8F11F0010487B091
:10694C0011D12846FDF7A3FB68B101A8FFF7D6FFCC
:10695C0001AA21460648FFF757FE2846FDF79CFB87
:10696C00044800F04BF8024807B030BD28E703207C
:10697C002CE7032005690B007047000038B50A4B63
:10698C0003600123044643610849202000F034F8D9
:10699C00202560600549A560284600F02DF8C4E963
:1069AC000305204638BD00BF18000100346E0B00F3
:1069BC0030B50E4D2978BFF35B8F11F0010487B011
:1069CC0011D12846FDF763FB68B16846FFF7D6FF87
:1069DC006A4621460648FFF757FE2846FDF75CFB42
:1069EC00044800F00BF8024807B030BD44E7032020
:1069FC0048E7032085690B00FDF745BB00230146E2
:106A0C001A46184600F05CB810B5013902449042A1
:106A1C0001D1002005E0037811F8014FA34201D009
:106A2C00181B10BD0130F2E70A44914200F1FF330C
:106A3C0000D1704710B511F8014B03F8014F91428A
:106A4C00F9D110BD02440346934200D1704703F8BC
:106A5C00011BF9E738B5104B1D68AB6B0446B3B995
:106A6C001820FFF7C5F90246A86320B90B4B0C4858
:106A7C004221FFF7D5F90B490B4BC0E900130B4B27
:106A8C0083600B23838100210120C2E90401AB6BDD
:106A9C0000221C615A6138BD54E10320356E0B0095
:106AAC004C6E0B000E33CDAB34126DE6ECDE0500F4
:106ABC00034613F8012B002AFBD1181A0138704732
:106ACC002DE9F843DFF8B8800646D8F800001F46D9
:106ADC000D46914600F056F8254B1C6834B9254CF0
:106AEC001C60254B13B11B68C4F8883063681F2BDE
:106AFC0007DDD8F8000000F047F84FF0FF30BDE894
:106B0C00F8834EB3D4F8880088B91C4B23B9D8F855
:106B1C00000000F038F8F0E74FF48470FFF768F9E4
:106B2C000028F4D00023C0E94033C4F8880063681F
:106B3C0040F8239001229A4000EB8301D0F80031F9
:106B4C001343C0F80031022EC1F8807002BFD0F898
:106B5C0004311343C0F804316368D8F800005A1CA0
:106B6C000233626044F8235000F00EF80020C6E7B0
:106B7C00E8E703205CE7032000000000FD5D0B004C
:106B8C00B8E1032070477047704700001D400B00B0
:106B9C0059400B0081400B0085400B0000000000A9
:106BAC0064656661756C7420004D5342004C534211
:106BBC00003C53504953657474696E677320646567
:106BCC006661756C743E003C53504953657474692E
:106BDC006E67732025732575202573204D4F444512
:106BEC0025753E00496E697469616C697A696E67D6
:106BFC0020534420636172642E2E2E00696E6974DA
:106C0C0069616C697A6174696F6E20646F6E652E50
:106C1C0000696E697469616C697A6174696F6E2060
:106C2C006661696C6564210057726974696E6720CE
:106C3C00746F20746573742E7478742E2E2E0074F9
:106C4C00657374696E6720312C20322C20332E0032
:106C5C006572726F72206F70656E696E67207465F5
:106C6C0073742E74787400746573742E7478743A1B
:106C7C000000000000000000000000002D410B008F
:106C8C00AB400B00C9400B000000000000000000EE
:106C9C00C7400B00D7400B00F7400B00F1400B0036
:106CAC00AD400B009F410B00EB400B00E5400B008F
:106CBC000000000000000000AB5E0B00A15E0B00AA
:106CCC00975E0B008D5E0B00815E0B00755E0B00FA
:106CDC0011670B0019670B00695E0B00615E0B00FE
:106CEC00575E0B004D5E0B0049670B000008101837
:106CFC00202830386170700025592D256D2D2564A4
:106D0C005425483A254D3A2553257A00617363740E
:106D1C00696D650000000000000000000D630B00B1
:106D2C00FD620B00FF620B00000000000000000081
:106D3C00F3630B005B640B0031640B0089600B0088
:106D4C0023640B00F5630B0005640B0055640B000A
:106D5C0015640B00ED630B00000000000000000048
:106D6C005F650B0055650B004B650B0001650B0057
:106D7C003F650B0033650B0011670B0019670B00A7
:106D8C0027650B001F650B0015650B000B650B00D1
:106D9C0049670B00000000000000000099650B0023
:106DAC0005660B00DD650B0089600B00AD650B0003
:106DBC00C9650B00BB650B00D7650B009B650B0011
:106DCC009F650B0000000000000000003D660B00FA
:106DDC0087660B005F660B003F660B0067660B0057
:106DEC006F660B0077660B007F660B0000000000DF
:106DFC0000000000D1660B00DB660B00E5660B00A3
:106E0C00EF660B00F9660B0005670B0011670B00B2
:106E1C0019670B0021670B002D670B0035670B0002
:106E2C003F670B0049670B00005245454E54206DDF
:106E3C00616C6C6F63207375636365656465640076
:106E4C002F6D6E742F776F726B73706163652F7714
:106E5C006F726B73706163652F4743432D31302D17
:106E6C00706970656C696E652F6A656E6B696E739F
:106E7C002D4743432D31302D706970656C696E65FB
:106E8C002D34385F32303230313132345F3136307C
:106E9C00363138303634312F7372632F6E65776C20
:106EAC0069622F6E65776C69622F6C6962632F73F0
:106EBC0074646C69622F72616E642E630000000052
:106ECC00A5430B00B55E0B0055600B0079600B0001
:106EDC008D610B009D610B00B9610B0069650B00A6
:046EEC0021680B000E
:106EF000040000001400000003000000474E55008D
:106F0000E863CDAA47C0C913027C9E1EEF3FFB0376
:046F1000FADAD3CA0C
:046F14000000000079
:106F1800186D0B0058E1032000000000000000007D
:106F28000000000000000000000000000000000059
:106F38000000000000000000000000000000000049
:106F48000000000000000000000000000000000039
:106F58000000000000000000000000000000000029
:106F68000000000000000000000000000000000019
:0C6F78000000000000000000ECE7032017
:106F8400FFFFFFFF00000102030405060708090ACA
:106F94000B0C0D0E0F101112131415161718191AC5
:086FA4001B1C1D1E1F2028000C
:046FAC0078563412CD
:04000003B000401CED
:00000001FF
